:020000040000FA
:10000000FC7F0020790B0000690B00006D0B0000E5
:1000100000000000000000000000000000000000E0
:10002000000000000000000000000000710B000054
:100030000000000000000000750B0000CD0C000067
:1000400010B5064C2378002B07D1054B002B02D0AE
:10005000044800E000BF0123237010BD5C000020B5
:1000600000000000D01E000008B5084B002B03D094
:100070000748084900E000BF07480368002B03D089
:10008000064B002B00D0984708BDC046000000007A
:10009000D01E00006000002058000020000000007A
:1000A000064B0322104002040549586808401043DB
:1000B0005860DA695107FCD47047C0460008004216
:1000C000FFFFFCFF38B5284A284B5A805A7852B2B5
:1000D000002AFBDB264B04211A6A264D0A431A62CA
:1000E0002B68012213432B602A680123214C1A42FA
:1000F000FAD1E2691A42F7D11423236041001E4865
:1001000001F008FD421EE068FF231A4098431043A7
:10011000E0602368022213432360EA69154B9107CC
:10012000FBD45A8B30218A4310210A435A83EB694E
:1001300001205A07FBD4114B02241A7802431A708B
:100140000F4B0F22197891431970197821431970B8
:100150000C490C782043087019780A401A701A78F4
:1001600020210A431A7038BD14400000000C0040E2
:100170000004004000080042006CDC0248440041DA
:100180003444004149440041F7B500230F1C01925B
:100190001D1C994254D001212A4E4000084333705F
:1001A000C1B2294B0322588B1C1C000910400128A6
:1001B00004D05B8B1B091A40022AF2D1606AC00A84
:1001C000C00208436062217E1F4B0122880708D4C9
:1001D000197E1142F7D05968C02292020A435A6030
:1001E00003E05B8B9B08134201D0002528E03270AE
:1001F000237E9907FCD5154A154B117801251970F6
:100200006268BD4212D0134B022013406360FFF7B7
:1002100047FF33785A1C3270227E9007FCD50B4979
:100220000B480A780135C254EDB2E9E78023DB02BE
:10023000134363600199002902D00320FFF730FFC8
:10024000281CFEBD7800002000080042280800425B
:1002500099000020FFFFFBFF024B00221870024BA9
:100260001A7070477A00002079000020F8B5274BFB
:100270001C786400E4B2264B03215D8B1A1C2D0907
:100280000D40012D04D05B8B1B0919400229F2D1CE
:10029000536ADB0ADB0223435362117E01231942B6
:1002A000FBD01B49498B8908194204D00320FFF772
:1002B000F7FE022427E017490D782B1C002B11D0E4
:1002C000154EEC1A365D154C2670114E177E012422
:1002D000768B274202D12642F7D00BE0B6082642A1
:1002E0000ED007E00B701C1C00280CD00320FFF779
:1002F000D7FE08E003200B700324FFF7D1FE02E0D5
:10030000013BDBB2DAE7201CF8BDC0467A000020D2
:1003100000080042790000207B00002028080042ED
:10032000034A1378591C1170024AD05401207047B7
:10033000790000207B000020154A164B1178002917
:1003400009D11549187809784118C9B21970802067
:1003500012494003C86111780131C9B2117019788E
:10036000F02902D81978092909D80B4908784042A0
:10037000C0B20870187809784118C9B2197012789B
:100380001B789A4203D18022044B5203DA617047F2
:100390007D000020010000200000002000440041FA
:1003A00010B5041C6B20FFF757FF201CFFF7B8FFA8
:1003B0000120FFF75BFF01210A1C6B20FFF7E4FE21
:1003C000014B187810BDC0469900002038B5051CB7
:1003D0006B200C1CFFF740FF281CFFF7A1FF201C1F
:1003E000FFF79EFF0120FFF741FF022038BD08B54F
:1003F0000520FFF7D5FFCE23011C19400520FFF78C
:10040000E5FF012008BD000010B5041C0020FFF727
:10041000C7FF78232D4A9843C1B2944242D018D8DE
:100420002B4B9C4238D009D82A4B9C4230D02A4BC7
:100430009C422FD0294B9C4245D13FE0284B9C4207
:100440002CD0284B9C422BD0274B9C423BD12023C5
:1004500033E0264A94422BD00AD8254B9C4223D025
:10046000244B9C4222D0244B9C422CD1402324E09C
:10047000224A94421ED004D8214B9C4223D16023AF
:100480001BE0204A944217D01F4A944215D01AE02C
:10049000082312E0102310E018230EE028230CE0BC
:1004A00030230AE0382308E0482306E0502304E024
:1004B000582302E0682300E0702319430020FFF76F
:1004C00085FF012000E0002010BDC046581100004B
:1004D00018100000780F0000C80F0000280F00005F
:1004E000B810000008110000681000009812000009
:1004F000F811000048120000A81100003813000095
:10050000E812000088130000D813000010B5041C86
:100510000020FFF745FF07239843E122C1B2920074
:10052000944220D008D8962C18D0FA235B009C4225
:1005300017D0642C22D11CE0114A944215D005D862
:100540009623DB009C4219D1042311E0FA22D20049
:1005500094420CD00B4A94420AD00FE0012421436C
:1005600007E0022304E0032302E0052300E0062362
:1005700019430020FFF72AFF012000E0002010BDF2
:10058000DC050000B80B000070B504AC267805ACA3
:100590002578441EA041C401002901D040210C430C
:1005A000002A01D020221443002B01D010231C4329
:1005B000002E01D008231C43002D01D004231C432E
:1005C0000220FFF7EDFE0125011C294021430220F6
:1005D000FFF7FCFE281C70BD10B5041C0420FFF7BB
:1005E000DFFE03231840084B9C4204D0074B9C427B
:1005F00008D1B02100E0982101430420FFF7E6FE76
:10060000012000E0002010BD10100000701000005C
:1006100008B50120FFF7C4FECF23011C19400120BB
:10062000FFF7D4FE012008BD07B5FFF7E0FEFFF796
:10063000EFFF0948FFF7E8FEFA20C000FFF766FF6A
:10064000002300930193181C191C1A1CFFF79CFF30
:100650000248FFF7C1FF07BD08110000101000009D
:1006600008B50348FFF72EFDFFF7DEFF08BDC046C3
:10067000A086010010B5C3699C07FCD4036802245E
:10068000A3430360C46901231C42FBD104682343D4
:1006900003600368DC07FCD4C46901231C42FBD15E
:1006A000C469DC401C42F7D1084B1A430260C3699D
:1006B0005A07FCD4C0239B0243608181C3699C0715
:1006C000FCD4036802221343036010BD0400004001
:1006D000037EDA07FCD5018570470000027E012306
:1006E0005107FBD5428B1A4207D1428BDA401A429E
:1006F00003D1428B92081A4202D0034B01221A7096
:10070000008DC0B27047C0467E00002070B50368FF
:10071000041C988B1A1C0821FF32084226D0802026
:1007200099839872112353704021144B9171507129
:100730005E68134DC0202E40800506435E605E69F2
:100740003540284358610F4818600F4818615D68AC
:100750000E4828408025AD02284358605868800B19
:100760008003586000235171237105E0137ADA0683
:1007700002D5201C00F0E4FA207970BD9C01002015
:10078000FFFFFF8F9C0000201C010020FF3F00F0B6
:10079000002303714371044B016083600B780222D4
:1007A00013430B707047C0460D07000038B5364B39
:1007B0002021DA6901200A43DA61344B06241A78D1
:1007C00002431A70324B0F2219789143197019782D
:1007D000214319702F490C782043087019780A407A
:1007E0001A701A7860210A431A702B4B2B4A5A80D0
:1007F0005A7852B2002AFBDB294B01211A780A43AE
:100800001A709A78D107FCD426480268510B1F222F
:100810001140914200D1052111408C011D8D2249CA
:100820002940214319850468A10C0A401F2A00D1E0
:100830001D221C8D1F210A408C4322431A85026809
:100840000721D20D0A408A4200D103220A40188DA6
:100850001103164A02400A431A8519787F220A407A
:100860001A701A78042112480A431A7058621A89B9
:100870000C218A431A811A8901218A431A81002195
:10088000802201F0A0F938BD000400405844004126
:100890003C44004159440041000C00400640000027
:1008A00000500041246080003FF8FFFFFF8FFFFFF2
:1008B0009C010020F7B5141C1F4A5F0101971D1C05
:1008C000D319061C5869271C4000400F0330103311
:1008D000C74006D00F1C8022596812060A435A608E
:1008E00009E02F1C7B1E9F41144BBF01FF18381CD1
:1008F000221C01F05FF901990F4808354218176171
:10090000131C5269A104920B890C92030A435A6189
:1009100059690B4A0A405A616B01F3180222DA71D5
:100920005979802252420A435A716B01F318DB79DC
:100930009A07FAD5201CFEBD9C0100201C01002056
:10094000FF3F00F0F8B51A4E051C3378141C002B3D
:1009500012D1184B184A1A645A6C920B92035A64BB
:10096000586C164A02405A64A2235B00EA5C40209D
:100970000243EA54012333704827FF37EA5D01231D
:10098000134012D00B4B5A6C9204920CA24202D22A
:100990005C6CA404A40C081C221C074901F00AF991
:1009A0000123EB550023337000E01C1C201CF8BD14
:1009B0007F0000209C010020DC000020FF3F00F0B1
:1009C000FF3083792022002900D110221343837144
:1009D00070470000084BFF305A69920B92035A612E
:1009E00002230372827980235B4213438371037A6B
:1009F0009A07FCD57047C0469C01002080235B42CB
:100A00001943C9B28172704770B5A02303225B00FD
:100A1000C254134B134A5C6CC021144089050C432B
:100A200046255C64FF35402444550F4D30261D6437
:100A300090256D0046555D6B1540294392255963FD
:100A40006D0080214155094D1D63B0256D00445551
:100A50005C6F22405A67B2235B00C15470BDC04630
:100A60009C010020FFFFFF8FDC0000205C010020C4
:100A7000024B5B785BB2002BFADB7047000C004046
:100A8000024BDB68DA06FBD57047C0460008004021
:100A9000F8B52A4B1E22596891430222114359602E
:100AA000274B28491E1C9982998A0A439A82F36827
:100AB0000227234C3B42FAD0234D0123AB60FFF7C2
:100AC000D7FF224B6B60FFF7D3FF8223DB016B80E4
:100AD000FFF7CEFFA38C80229343A384FFF7D0FFC0
:100AE0001B4BE362FFF7CCFFA38C1A4A1343A3848A
:100AF000FFF7C6FFA38C1F43A784F3681A06FCD533
:100B00000F4BDB685A06F8D50024FFF7B9FFAC603D
:100B1000FFF7AEFF104B6B60FFF7AAFF0F4B104AB9
:100B2000C0215A600F4A0906106A0002000A0143F8
:100B3000116207229C601A60F8BDC0460040004167
:100B4000000800400C060000000C004001050100F8
:100B5000B805FF7D040A00000007030010E000E074
:100B6000E703000000ED00E00EBEFEE70DBEFEE76D
:100B700005BEFEE702BEFEE70E4A0F4838B58242C8
:100B800004D10E4A0E4B93420ED10AE00D4C944212
:100B9000F7D00023D1188842F3D9E55804330D600B
:100BA000F8E700F011F804E09342FAD2002102C302
:100BB000FAE7FEE7000000205C000020AC03002004
:100BC0005C000020D41E000038B5344D2B68013382
:100BD0001AD0334B2A1D1A60EAB2002A14D1314BC5
:100BE000197801231940304B0AD118682F4A9042D6
:100BF00001D1196008E01A602D4A013A002AFCD19F
:100C00001A602C4B01221A70FFF742FF62B6FFF701
:100C100027FD284B284C1B78002B0AD02B6883F328
:100C200008881E4BFF229343A3601D4B1B681B6863
:100C3000184700F09DFD00F04FF8204B8022520332
:100C40009A601F4B1F4A051C5A60216AC022090284
:100C5000090A12060A43226200229A6007221A60D9
:100C6000AB68281C9847184B002801D001221A7045
:100C70001A78002A05D0002000F08CFA00F004FB5E
:100C8000FCE71B78002BEBD100F0E6FD0028E7D055
:100C9000012000F07FFA00F0F7FAFCE700200000E6
:100CA0001C02002038040040FC7F002035817307BF
:100CB00048E801008000002000ED00E00044004111
:100CC00010E000E0E70300008100002008B5FFF716
:100CD00033FB00F0C3FA08BD10B5054B054C23608B
:100CE000FFF764FD201C2168FFF752FD201C10BD9A
:100CF000005000412002002070B5051CC0B0081C47
:100D0000161C0C1C00F067FF40006A4603230230EB
:100D10005370107076080123E218013A11785A00D6
:100D2000002906D1281C69460023FFF7C3FD40B007
:100D300070BDB342F6DA684681520133ECE7000039
:100D4000F7B5BA4A04681378B949271CFF37051C60
:100D5000102038720B705378B648B74E03709378F2
:100D60003380D178338809020B4333801179B34B38
:100D70001980517918880902084318809079B04980
:100D80000880D2790888120202430A8040227A71D0
:100D9000A84F3A78A64F120238780F1C0243A94890
:100DA0008446181C624500D1C2E020DC8021490045
:100DB0008A4200D16EE109DC812A00D192E0822AC8
:100DC00000D195E0802A00D064E18BE081235B00B4
:100DD0009A4200D1CFE000DA58E1C0239B009A424A
:100DE00000D157E1984B9A4200D14FE152E1902354
:100DF0001B019A4269D015DCD023DB009A4222D035
:100E000088231B019A4269D0A023DB009A4200D0BC
:100E100040E1201CFFF7DEFD3188286889B2FFF72A
:100E2000EDFD3BE1894B9A4200D12FE100DC31E13D
:100E3000874B9A4200D11DE1864B9A4200D029E1AE
:100E400033886B7122E133881B0A012B08D10B8890
:100E500012222868934201D80A8892B27E4911E191
:100E600033881B0A022B08D10B884322286893423F
:100E700001D80A8892B2794904E133881B0A032B0E
:100E800000D007E13388DBB2012B17D0002B07D04D
:100E9000022B00D0FEE00A882868D2B2704911E027
:100EA000042201A86F4900F085FE3B8804222868CF
:100EB000934201D83A8892B201A9E3E00A882868EF
:100EC0006949D2B2FFF718FFE8E03388201C2B7184
:100ED000FFF780FD201CFFF797FDDFE0291C01C90B
:100EE0000122CFE0614900230B8028680222CAE07A
:100EF0005E4900220A801888502210405C4A107017
:100F00001E880F20304018801888032800D9C1E0BF
:100F100012781B8808335B01E418A379002A01D0FA
:100F20009B0600E0DB06DB0F0B8028680222A9E0AD
:100F300019887F2291434E4AC9B2117018880F2137
:100F4000014019803188002900D0A3E019880029C8
:100F500000D19FE01988032900D99BE012781B88F3
:100F600008335B01E318002A02D020225A718DE079
:100F7000102159718AE002887F239A433C4BD2B2F8
:100F80001A7001880F220A4002803288002A00D09D
:100F900080E00288002A00D17CE00288032A00D980
:100FA00078E01B78002B1FD0038808335B01E3181F
:100FB0009B799A066AD50388202208335B01E318DF
:100FC0001A71038808335B01E318DB795F065DD58E
:100FD0000388402208335B01E318DA710388022298
:100FE00008335B01E3181EE0038808335B01E31854
:100FF0009B79D9064AD50388102208335B01E31890
:101000001A71038808335B01E318DB799A063DD532
:101010000388202208335B01E318DA710388012278
:1010200008335B01E3181A7130E0C0469C000020D1
:1010300083000020880000208A0000208C0000200F
:1010400086000020020300000103000021200000B0
:10105000A121000021220000241C00000400002027
:101060000C1C0000FC1B0000001C00008400002081
:10107000820000200B8808222868934201D80A8841
:1010800092B207490023FFF715FC07E0201CFFF789
:10109000A1FC03E0201C0121FFF792FCF7BDC04634
:1010A0004800002007B5054B0122019001A91868EE
:1010B000131CFFF7FFFB01200EBDC04620020020DD
:1010C00013B5054B6C4607341868211C0122FFF745
:1010D00039FC207816BDC0462002002010B5074C10
:1010E000201CFFF713FB031C0020834205D022685D
:1010F0004823FF33D05C0123184010BD200200209C
:1011000010B5054A0C1C031C191C10680123221C75
:10111000FFF7D0FB201C10BD2002002070B5084C4A
:10112000061C201C0D1CFFF7F1FA0023984205D085
:101130002068311C2A1CFFF705FC031C181C70BD1D
:1011400020020020F8B50C4C051C201C0E1CFFF7DB
:10115000DDFA0023271C341C98420AD0002C07D04B
:10116000291C221C3868FFF7EDFB241A2D18F5E71F
:10117000331C181CF8BDC0462002002008B5031C13
:10118000081C111C9847024B64221A8008BDC046F7
:1011900092000020012805D1054B064A1A60064B33
:1011A000187004E0002802D1044A014B1A6070470D
:1011B00090020020581C000098000020A41C000091
:1011C00030B50A1C1C4985B00978031C00292AD0B7
:1011D000042A01D1006804E0022A01D1008800E05D
:1011E0000078520004A98B180B3B9C1AA3420BD029
:1011F0000F210140092902D83025294300E0373169
:1012000019700009013BF1E701A930230B70782325
:101210004B700A208B1898700D20D870074B043241
:101220001B68D86803E005490968C868191CFFF7FE
:10123000A5FF05B030BDC0468E0000209002002002
:1012400072B6EFF30883044A1360036883F30888D7
:10125000436818477047C04694020020084B1A881C
:10126000002A03D01A88013A92B21A80054B1A88D4
:10127000002A03D01A88013A92B21A807047C046F9
:101280009200002090000020F0B591B008A9CC4A4F
:101290000B1C31CA31C351CA51C360CA60C3C94BA8
:1012A000C9489A687A255203520F92005258C7498A
:1012B00002609C68A4B262430C60C54900240A60C5
:1012C000C44A1460C44C2570C44CC54D2368281C06
:1012D0001B6940219847002802D0C24B64221A8023
:1012E000C14B00221860C14B1D60C14BC04DBE4FA9
:1012F0001A602A683B689A42E6D2BC4B1B681A788F
:10130000FF2A00D114E2232A00D0EBE1B94E337852
:10131000002B06D0B14BB8491B680222D868FFF7F2
:101320002DFFAD4B1B78532B3CD13B682A68934271
:101330001ED9AE4801322A609A1AB04B01681B6868
:1013400001310160AE4E9A4201D2326000E033605A
:10135000A04832680068049000F02CFC33682968CB
:101360005A182A60A14A1668F1181160A54A13702C
:101370002B68013B2B609D4B1A68013A1A60A14B08
:101380009E4A1B7811688B420AD222689148C91A7A
:10139000006892699047002802D0924B64221A801C
:1013A000C0468DE1522B0AD18A48944A23680068CE
:1013B00011685B69039098476422934B0DE04F2BB3
:1013C00005D1844B8D4A1B6812681A7078E1482B4E
:1013D00005D1804B894A1B6812681A8070E1572B2F
:1013E00005D17C4B854A1B6812681A6068E16F2B37
:1013F00003D1784B0121186807E0682B08D1754BA1
:101400007E481B6802211B880360FFF7D9FE57E165
:10141000772B06D16F4B79481B6804211B6803604A
:10142000F3E7472B13D1754B1868FFF709FF774B8C
:101430001B6883F3088862B6754B1B78002B00D1BC
:101440003EE1664B06201B681B68984738E1542B29
:1014500004D101233370614B1B6864E04E2B0CD127
:101460003378002B06D15D4B63491B680222D86894
:10147000FFF784FE0023337022E1562B57D12368F7
:101480006449D8680122FFF779FE23686249D86869
:101490000322FFF773FE614D2368291CD8680122DF
:1014A000FFF76CFE23685E49D8680D22FFF766FEE1
:1014B0002368291CD8680122FFF760FE4B4F4C4D72
:1014C0005849002339602B603A1C281C13685E1CA5
:1014D00016601B780593002B03D00368013303606B
:1014E000F4E73E4E2A683368D868FFF747FE336852
:1014F0004A49D8680122FFF741FE059929604A4907
:1015000039603A4A1368581C10601B78002B04D0CD
:10151000374B1A6801321A60F3E733682A68D868D3
:10152000FFF72CFE3368D86833490222C6E0334AFD
:10153000582B17D1244E264D366813682A68B100FF
:1015400093420AD21F4D5808E861384828801D4D43
:10155000287DC607FBD55B18F2E7204B34491B6892
:10156000D868AAE0592B79D112681A4B3149002A60
:1015700002D11B680B606CE0124D086819686B683B
:10158000104E8025AB4392087360002A61D02A4B2D
:101590000C4D2B800B4E337DDD07FBD500230A4D10
:1015A0002D680195AD08AB4203D3244D054E35801F
:1015B00046E09342F9D09D00465901334E51EEE783
:1015C000381C00000040004148020020400200207A
:1015D0003C0200208C0200203802002090020020F3
:1015E0004C02002090000020300200203402002035
:1015F000440200208E000020981C00009802002069
:101600009C0200202C020020920000209402002066
:1016100098000020741C00009D1C0000761C000037
:10162000C01C0000781C0000841C000002A5FFFF05
:101630008D1C00009400002044A5FFFF04A5FFFFBF
:101640003F4E357DEE07FBD59D0049194019D21A52
:101650009BE73C4B3C491B68D8682EE05A2B2FD1A6
:101660003A4B17681D680026EF19BD4206D028784E
:10167000311C00F013F90135061CF6E7314B3449F3
:101680001B680122D868FFF779FD07230F2232403B
:10169000111C36093031092A00DD07311820C01825
:1016A0006A468154013BF1D2236806A9D868082212
:1016B000FFF764FD23682749D8680322FFF75EFD22
:1016C000254B7A221A70254B00221A60244B1B7876
:1016D00093422DD01B4B23491B680122D868FFF78A
:1016E0004DFD25E0111C3039C8B21C4B092804D827
:1016F0001D682A01114319601AE0111C413905299E
:1017000003D81E68373A310106E0111C61390529FA
:1017100004D81868573A01010A4308E02C2A03D17B
:101720000A4A1968116001E00B490A7000221A6028
:101730000D4B1A6801321A600C4B1A680132D5E55C
:101740000040004190020020911C00008C0200200B
:10175000951C0000971C0000380200209802002011
:101760008E0000209B1C0000440200203402002058
:1017700010B51C4B01201A78032402431A701A4B2F
:101780000F2219789143197019782143197017495C
:101790000C782043087019780A401A701A783021A2
:1017A0000A431A70124B80211A6A0A431A62114BBB
:1017B000114A5A805A7852B2002AFBDBC4220F48E1
:1017C0000F499203FEF756FF0E4A002313700E4A8C
:1017D00013700E4A13700E4A13700E4A13700E4A9D
:1017E000137010BDD6440041BB440041D7440041B2
:1017F00000040040000C004019400000001C0042A2
:101800002AF60000A002002027030020A1020020E9
:10181000A4020020280300202503002008B5C1B23F
:101820000248FEF755FF012008BDC046001C0042DB
:10183000024B187E4007C00F7047C046001C004294
:1018400008B5FFF7F5FF0028FBD00248FEF746FF7A
:1018500008BDC046001C004208B5FFF7E9FF0023A1
:10186000984205D0FFF7ECFF031C233B5A4253413B
:10187000181C08BD70B5041C0D1C4618B44204D0D9
:101880002078FFF7CBFF0134F8E7281C70BD10B5B6
:10189000041CFFF7D5FF2070012010BD0B0A584033
:1018A000034B4000C05A0902484080B27047C0460E
:1018B000CE1C0000F7B50024051C0F1C261CBC42E2
:1018C00020D0FFF7BDFF114BC0B21B780190002B59
:1018D0001AD1311CFFF7E2FF0D4B061C1A88002AB3
:1018E00004D10C4A11782A1C002907D001996A1CDE
:1018F0002970802F02D11988013919800134A4B2CE
:10190000151CDCE7301C00E00120FEBD2503002093
:10191000A202002026030020F0B53E4E85B0002232
:1019200003900C1C32703C4B914201D1012201E02A
:101930003A490C801A707F231C4201D080349C43AA
:10194000FFF77EFF3378C0B2002B07D0002535703B
:10195000FFF776FF3378C0B2AB4236D1432803D0CD
:10196000712853D01528EBD1012300930120FFF7F4
:1019700055FF0098FFF752FF00998025C843C0B279
:10198000FFF74CFF039B00270293244A1388002B88
:101990001DD1214901930978002918D10198FFF739
:1019A0003DFF391C0198FFF779FF013D071C002D11
:1019B000EBD1000AC0B2FFF731FFF8B2FFF72EFFFC
:1019C000FFF73EFF3378002B0AD035701FE00299F5
:1019D000013B09781380029B019101330293DDE7FB
:1019E000C0B2062807D1009B03990133DBB28031D6
:1019F0000093803C0391002CB8D10420FFF70EFF28
:101A0000FFF71EFF044B01251C7000E00025281C79
:101A100005B0F0BD2503002026030020A20200200F
:101A2000F0B5384C87B0002301902370994201D162
:101A3000012301E0344A1180344A642613704320A4
:101A4000FFF7ECFE324FFFF7F3FE002803D1002F23
:101A500003D0013FF7E7002F03D1013E002EEED166
:101A60004DE00125FFF7ECFE2378002B38D1C0B202
:101A70000290012805D004283DD10620FFF7CEFEB4
:101A800039E005AE0221301CFFF714FF01988021D8
:101A9000FFF710FF23780390002B18D1FFF7D0FE3B
:101AA0000702FFF7CDFEBFB223783F18BFB2012B6C
:101AB0000DD0039B9F4207D13378AB4204D1EB4357
:101AC0007278DBB29A4204D01820FFF7A7FE0023F9
:101AD00003E00620FFF7A2FE029B2278002A02D034
:101AE000002626700BE0012B05D1019A6B1C803279
:101AF000DDB20192B6E7054A002313700126301CBF
:101B000007B0F0BD25030020A2020020260300201C
:101B100000350C00002934D00123002210B4884283
:101B20002CD301242407A14204D2814202D209010C
:101B30001B01F8E7E400A14204D2814202D249002D
:101B40005B00F8E7884201D3401A1A434C08A042D0
:101B500002D3001B5C0822438C08A04202D3001B66
:101B60009C082243CC08A04202D3001BDC0822437D
:101B7000002803D01B0901D00909E3E7101C10BCA1
:101B80007047002801D00020C04307B4024802A1DA
:101B90004018029003BDC046190000000029F0D093
:101BA00003B5FFF7B9FF0EBC4243891A1847C04678
:101BB0007047C04610B50023934203D0CC5CC45498
:101BC0000133F9E710BD031C8218934202D019704B
:101BD0000133FAE770470023C25C0133002AFBD1CE
:101BE000581E7047F8B5C046F8BC08BC9E46704702
:101BF000F8B5C046F8BC08BC9E467047040309040B
:101C000041726475696E6F204C4C4300417264757B
:101C1000696E6F204D4B5220576946692031303133
:101C20003000000012010002020000404123540075
:101C30000002010200010000080000001000000086
:101C400020000000400000008000000000010000B3
:101C500000020000000400001D18000041180000F0
:101C600031180000751800008F18000019190000C5
:101C7000211A00007600200041707220313120329C
:101C80003031390031333A30393A353600580A0D9F
:101C900000590A0D005A00230A0D003E00322E3072
:101CA00000000000A5100000C1100000DD100000C1
:101CB000011100001D11000001110000451100007C
:101CC0005B41726475696E6F3A58595A5D00000045
:101CD0002110422063308440A550C660E77008811F
:101CE00029914AA16BB18CC1ADD1CEE1EFF1311296
:101CF000100273325222B5529442F772D66239936F
:101D000018837BB35AA3BDD39CC3FFF3DEE36224E5
:101D1000433420040114E664C774A44485546AA5BE
:101D20004BB528850995EEE5CFF5ACC58DD5533675
:101D3000722611163006D776F6669556B4465BB70E
:101D40007AA719973887DFF7FEE79DD7BCC7C44845
:101D5000E5588668A7784008611802282338CCC95E
:101D6000EDD98EE9AFF9488969990AA92BB9F55AD5
:101D7000D44AB77A966A711A500A333A122AFDDBAE
:101D8000DCCBBFFB9EEB799B588B3BBB1AABA66CA5
:101D9000877CE44CC55C222C033C600C411CAEEDFE
:101DA0008FFDECCDCDDD2AAD0BBD688D499D977EB5
:101DB000B66ED55EF44E133E322E511E700E9FFF4E
:101DC000BEEFDDDFFCCF1BBF3AAF599F788F889104
:101DD000A981CAB1EBA10CD12DC14EF16FE18010E8
:101DE000A100C230E3200450254046706760B983EB
:101DF0009893FBA3DAB33DC31CD37FE35EF3B10238
:101E00009012F322D2323542145277625672EAB5FA
:101E1000CBA5A89589856EF54FE52CD50DC5E23487
:101E2000C324A01481046674476424540544DBA7CA
:101E3000FAB79987B8975FE77EF71DC73CD7D326D7
:101E4000F2369106B01657667676154634564CD95A
:101E50006DC90EF92FE9C899E9898AB9ABA9445827
:101E6000654806782768C018E1088238A3287DCB2A
:101E70005CDB3FEB1EFBF98BD89BBBAB9ABB754A77
:101E8000545A376A167AF10AD01AB32A923A2EFDBA
:101E90000FED6CDD4DCDAABD8BADE89DC98D267CC7
:101EA000076C645C454CA23C832CE01CC10C1FEF0A
:101EB0003EFF5DCF7CDF9BAFBABFD98FF89F176E17
:101EC000367E554E745E932EB23ED10EF01E00004B
:101ED000000000000114000009024300020100801C
:101EE0003209040000010202000005240010010470
:101EF00024020005240600010524010001070583D2
:101F0000030800FF09040100020A00000007058120
:101F100002400000070502024000000000C201006C
:101F200000000800690000004100000000000000FF
:10200000008000207D800000658000006580000069
:1020100000000000000000000000000000000000C0
:1020200000000000000000000000000065800000CB
:10203000000000000000000065800000D18000006A
:1020400065800000658000006580000065800000FC
:1020500065800000658000006580000069800000E8
:1020600065800000658000006580000065800000DC
:1020700065800000ED5B0000DD5B00006580000016
:1020800065800000658000006580000065800000BC
:102090000000000065800000658000006580000091
:1020A000658000006580000065800000658000009C
:1020B0000000000010B5064C2378002B07D1054B1B
:1020C000002B02D0044800E000BF0123237010BDA4
:1020D000D00200200000000098DC0000044B10B586
:1020E000002B03D00349044800E000BF10BDC046E8
:1020F00000000000D402002098DC000010B50800A9
:10210000110009F005FB10BD10B5080008F0BAFD7C
:1021100010BD10B5080008F0ABFD10BD074A030064
:102120000020914208D08A091B68D2003F309B18DA
:1021300001405868090140187047C046FFFF000081
:102140002C3270B5040010000D00FFF7E7FFA580EA
:102150002060002803D043892000E38070BD014B3C
:10216000FAE7C046FFFF0000094A10B50B00040063
:10217000002094420AD80A68210012680931180028
:102180009047002802D00123C480838010BDC04640
:10219000FFFF00000C4B70B506000D0014009942C3
:1021A0000AD813680A009B6801000932200098478A
:1021B000002801D0C58070BD236820005B68310015
:1021C00098470020F7E7C046FFFF00000B0010B55E
:1021D0000A68010052681800904710BD70B50025CC
:1021E0000368002B11D01C000834A14210D19C8838
:1021F000013CA4B29C80002C07D11C68002D05D0A6
:102200002C6011001800FFF7E1FF70BD0460F8E7D3
:102210001D001B68E5E7F8B504000F000026A38C3D
:10222000216AB3420ED9F5004D196968002903D01F
:102230003B6838005B689847002301362B606B6071
:10224000B6B2ECE70023A3848C4206D03B6838008A
:102250005B68984704232462E384F8BD30B58B8C17
:102260000C6A013B9BB2DA00A4186268002A14D001
:10227000618825888D4210D94D1C65800C0112198A
:10228000002A0AD0012500249B016D42C91814724E
:102290005581D4600260818030BD00230360013B22
:1022A0008380F9E770B504000568A068002805D0B0
:1022B00003682900A360FFF789FFF6E72000216883
:1022C0000C30FFF7A8FF200070BD0000F7B5037ABF
:1022D00006000C00DB0706D50168200008312268E3
:1022E0000830FFF77BFF6023327A1A4225D0378807
:1022F000124B9F421DD0200039002C30FFF70EFFFB
:10230000438905000193037A7F2B05D9C16820001A
:1023100022680830FFF762FF21002800FFF7D6FF90
:102320007F222B7A93432B72A38E6B81A786019F0A
:10233000DEE701235B4233807380F7BDFFFF0000BF
:1023400070B5C5882C31040008002900FFF7E6FEAF
:10235000A5802060002801D04389E38070BD000083
:10236000F0B587B001900391968E444B14009E42C5
:1023700021D0100031002C30FFF7D0FE438901221C
:10238000A38600230500524203724281C360039B6F
:1023900059883A4B994200D16CE020002C30FFF76D
:1023A000BDFE039B46815E80019B019A1D609E805D
:1023B0006B89D3805BE013000C330293138E176894
:1023C000002B09D0029904A8FFF748FF049D002DB7
:1023D00002D004AB9E88DAE7238E668E9E4217D128
:1023E0008023DB009E423BD07600E16A0298B6B2C1
:1023F0003B68F20088422ED11B68110038009847D4
:10240000051E2DD02022029908F058FCE562668650
:10241000268EE36A751CF6009E19194BADB225860F
:10242000ED186B1E9D413B683F3529011B68380044
:1024300098477060431E9841002340420540358014
:102440007380029904A8FFF709FF049D04AB9E88DE
:10245000002D05D09BE79B6838009847051ED5D115
:10246000012323710023019A1360013B938001989B
:1024700007B0F0BD039B1E8095E7C046FFFF00003C
:1024800000FCFFFF70B50025436A0400C3181D71EE
:10249000011D006805F03DFDA84200D06562606A3C
:1024A00070BD70B5436A040001330D001F2B06D8C0
:1024B0000120636A5A1C6262E418257170BDFFF73F
:1024C000E1FF0028F4D00020F8E7002370B5836016
:1024D00043680400002B09D105681F202968FFF715
:1024E00043FE002801D101232B71606070BD70B5DF
:1024F000040040680E0000280ED0A168C3889942ED
:102500000AD12568490001312A68FFF743FE0028F7
:1025100001D101232B7160606368002B04D0A26895
:10252000511C9B18A1601E7270BD000030B50400E4
:1025300087B001AD284905F03AFC2900274801F091
:1025400009FC1022697903A805F050FC03A92000BA
:1025500005F0CDFC03A805F0DBFB1022297903A8C8
:1025600005F044FC03A9200005F0C1FC03A805F018
:10257000CFFB1022E97803A805F038FC03A920005E
:1025800005F0B5FC03A805F0C3FB1022A97803A849
:1025900005F02CFC03A9200005F0A9FC03A805F018
:1025A000B7FB1022697803A805F020FC03A92000DE
:1025B00005F09DFC03A805F0ABFB1022297803A8C9
:1025C00005F014FC03A9200005F091FC03A805F018
:1025D0009FFB200007B030BD5DD20000F802002054
:1025E0001FB501000D23092201A805F0EBFC01A88D
:1025F00005F006FD01A805F02CFD040001A805F07A
:1026000087FB200004B010BDF8B50023104E114D1B
:1026100030002B6001F0A9FB0F4C1049FF2813D0AC
:102620002B68032B0FD00E49200005F0AFFA0D4F99
:102630002000390005F0C6FA0B4A3900300001F0DD
:10264000A4FB2860ECE70949200005F0BBFAF8BDBF
:10265000F8020020F4020020B008002081D0000021
:10266000A7D000003AD200002FD20000C4D0000052
:1026700010B50F2005F050FF08F032F90022094B89
:1026800006F018FF0022084B07F01EFB02000B00AB
:102690000020054907F08AFD08F0E0F908F08CF900
:1026A00010BDC04600F88F400000594070B500686A
:1026B00000280ED0C4884B689C42F8D100230D68D6
:1026C0009C4206D0C218EE5C127A9642EFD10133DA
:1026D000F6E770BDF7B54368826804009B180022D6
:1026E0001A72466805688768330028000833083086
:1026F000694600930197FFF7D9FF00280FD12A6898
:1027000039003000FFF746FD002801D101232B716D
:1027100023689A680260986000236360FEBD838826
:1027200001338380FAE707B5CB0001680822C91896
:10273000684608F0C3FA0098019903B000BD000094
:10274000F0B5037889B005000F002B2B2DD02D2B71
:102750002CD101352C3B01932B781A00303A092AF1
:1027600002D92E2B00D0FFE0002000217F4E2B78D5
:102770001C00303CE4B2092C1AD8B14224D802D152
:102780007B4B984220D800230A2206F057FA0023F8
:1027900002940393E3434A1C01D1984214D8029B4C
:1027A000039C0135C0186141E1E701350023D2E700
:1027B000002B09D1019B002B20D080231B069942BE
:1027C00002D80CD100280AD000246A4EB14220D988
:1027D0000A220023013406F011FA24B2F6E77F2220
:1027E0003B7A93431A000A2313433B72002342426D
:1027F0008B413A607B60019809B0F0BD7F223B7A43
:102800003860796093431A00082313433B72012315
:1028100054E02B781A00303A092A03D8013424B244
:102820000135F6E72E2B1AD101352E78303EF6B25F
:10283000092E14D8504B9942F6D802D14F4B9842EA
:10284000F2D80A22002306F0F9F900230496059332
:10285000013C049A059B24B280185941E4E72023E7
:102860002A789A430023452A44D16A782D2A27D111
:10287000023501330A260293B44600232E78303EF7
:10288000F2B2092A32D8624653439A22F3181E192B
:102890005200964228DD029A3B7A7F24002A15D006
:1028A000019A00200021002A01D080210906A343BB
:1028B0000C243860796023433B72029B01939AE7B2
:1028C0002B2A01D00135D5E70235D3E7019A002044
:1028D000002A07D02A490C22A34313433B723860D5
:1028E000796094E72749F6E70135C7E7029A002A9D
:1028F00000D05B422A78002A36D1E41806F0E6F9C7
:1029000006000D00002C19DD1F4B079300230293D6
:10291000002C17D001231C420BD0029907A8FFF707
:1029200002FF02000B003000290007F0CDF906007D
:102930000D00029B64100133DBB2E8E7134B6442E5
:102940000793E3E7019B002B02D080231B06ED18C1
:102950007F223B7A93431A000C2313433B723200CD
:102960002B003A607B6052E70023A7E799999919F9
:1029700099999999FFFF0F00999901009899999950
:102980000000F0FF0000F07FB0CF000068CF000033
:10299000F0B587B00C1E029103922BD007688668B1
:1029A000110020001500FFF791FC7F22237A93434A
:1029B0002372002F1ED028002B6804A90830019331
:1029C00004970596FFF772FE00280BD08388013329
:1029D00083807F22237A206093431A0005231343C8
:1029E000237207E001993000FFF7BEFB002803D1F6
:1029F00001232B7107B0F0BD02000023049F0832B1
:102A00009E4203D0F95CD1540133F9E700238619C3
:102A10003372AB680360A860DBE7437E002B09D10B
:102A2000026941698A4202D2531C0361137803761A
:102A300001234376007E704710B504002000FFF7A5
:102A4000ECFF0A2807D8092809D200280AD0012358
:102A5000002023730AE00D2801D02028F7D100239D
:102A60006376EBE7207B431E9841013010BD70B5C3
:102A700005000C00207800280CD02800FFF7CDFFBF
:102A8000002806D02378834205D1002301346B76D9
:102A9000F0E7022070BD0320FCE7F8B50500160042
:102AA0000C008F18BC4205D021782800FFF7F9FCF4
:102AB0000134F7E7AB6A9E19AE62F8BD70B5050048
:102AC00008000C0008F080FE210002002800FFF73B
:102AD000E4FF70BDF0B51624070016001D0087B096
:102AE0006C44300029000A22002306F087F8013CDC
:102AF00030322270300029000A22002306F07EF8CE
:102B00000D0006000143ECD116236B441A1B210073
:102B10003800FFF7C2FF07B0F0BD70B504000D002C
:102B2000FFF77BFF0023A84201D163760133180031
:102B300070BDF0B585B00400151E009306D122606B
:102B400001235B42A380200005B0F0BD02AF0988DD
:102B5000009A3800FFF7F4FA029B002B1AD02800E5
:102B6000DE6808F031FE0190301E01D008F02CFE26
:102B7000019B834209D10023019A9A420CD0E95C5F
:102B8000F25C914201D10133F6E700993800FFF77A
:102B9000D7FBE1E72360D3E7230006CF06C3D2E7E4
:102BA0007FB504000D001600081E25D07F21237A72
:102BB00020220B421DD18B431343237201235B421E
:102BC00023806380684633002A002100FFF7B1FFAD
:102BD0000098002810D102A832002100FFF7C0FBA6
:102BE0000298002808D07F22037AC5601340037240
:102BF00002E01340181EE5D104B070BD37B50C00DB
:102C0000C1B27F2803D82000FFF771FC37BD002335
:102C10006A463F25137080226B4629405242114379
:102C20008009597081B2C3B21F290CD840321343B6
:102C30006A469370D51C013D29780029E6D0200012
:102C4000FFF755FCF7E769462B4000041343800D5E
:102C50008B70C3B20F2805DC202252421343CB7085
:102C600001ADE8E71D40102380115B422A43184361
:102C7000CA7008714D1DDEE7F7B505000026FFF7A5
:102C8000CCFE6E7601902800FFF7C7FE0024019B62
:102C900001006C76834254D0A04201D10220FEBDD7
:102CA0005C284AD12800FFF7B8FE0028F6D0274B51
:102CB000752838D104276C762800FFF7AEFE00286F
:102CC000ECD0402805D83038C0B20F2805D90320F1
:102CD000E5E7202398433738F6E700232401013F36
:102CE0000443FFB2A4B26B769F42E5D1A0239B01BF
:102CF000E318174A9BB2934202D8A405A60DC2E777
:102D000090239B01E3189BB22000934206D88023B6
:102D10008005B402800D20435B02C0182900FFF734
:102D20006DFFB0E702331A78002AD0D09042F9D173
:102D300059780029CBD000236B762800FFF7D7FB0A
:102D4000A1E76868434258418000A8E74DD20000DF
:102D5000FF03000010B50400FFF7A3FBA36A1818D7
:102D6000A06210BD70B504000C4B1D78002D0DD075
:102D70005A788A4201D00233F7E75C212000FFF73E
:102D8000E9FF29002000FFF7E5FF05E00029F9D160
:102D900003492000FFF792FE70BDC0464FD20000ED
:102DA00046D2000070B50C00160022210500FFF786
:102DB000D1FFA619B44205D021782800FFF7D2FF31
:102DC0000134F7E728002221FFF7C4FF70BD37B5B3
:102DD00004000D007B21FFF7BDFF2988E26A6846E9
:102DE000FFF7AEF9009B002B24D022212000DD68E4
:102DF000FFF7B0FF2978002904D020000135FFF744
:102E0000B1FFF7E722212000FFF7A4FF3A212000BD
:102E1000FFF7A0FF2100009800F012F8E16A684671
:102E2000FFF78EFA009B002B04D02C212000FFF727
:102E300091FFD7E720007D21FFF78CFFA06A3EBD00
:102E40007F22F0B5037A8DB005000C001340082BEB
:102E500000D109E216D8042B00D1F1E104D8032BEC
:102E600000D1FDE1C84909E0052B00D1F4E1062BB2
:102E7000F8D10378C549002B00D1C5492000FFF7E0
:102E80001DFED5E10C2B37D014D80A2BEAD10668E9
:102E90004768002F08DA2D212000FFF75BFF320082
:102EA0003B00002756429F4132003B002000FFF7C5
:102EB00011FEBDE1202B00D1BCE1402BD2D15B2122
:102EC0002000FFF747FF2988E26A06A8FFF738F9D4
:102ED0000698002800D1A7E12100FFF7B1FFE16AC1
:102EE00006A8FFF72DFA069B002B00D19CE12C21B0
:102EF0002000FFF72FFFEBE7456807682B003A003B
:102F00003800290005F04CFE0028ABD00022002339
:102F10003800290005F044FE00280DD13A002B00AE
:102F20003800290005F0AAFF02000B003800290034
:102F300005F036FE002895D1002200233800290034
:102F400005F034FE002806D02D212000FFF702FFF7
:102F500080231B06ED1800228E4B3800290005F057
:102F600043FE00286BD00023082601930133FF3372
:102F70000293894B310006A80693FFF7D4FB0200A9
:102F80000B003800290005F02FFE002813D0834BDA
:102F9000310006A80693FFF7C6FB02000B003800BD
:102FA000290006F091FE029A070094460D00019B4D
:102FB00063441BB20193029B5B100293013ED8D283
:102FC000002200233800290005F004FE00283CD030
:102FD000734A744B3800290005F0F2FD039600286F
:102FE00033D0731C31D06D4B039906A80693FFF7BD
:102FF0009AFB00226C4B06F067FE3A002B0005F0AE
:10300000E9FD002812D0644B039906A80693FFF748
:103010008AFB02000B003800290006F055FE0D0067
:10302000019B029A0700981A03B20193029B013E8A
:103030005B100293039B76B2013B0393D1E780239D
:103040005B00029308260190BAE73800290005F0DA
:103050001FFE092306000593544B029004936B4610
:103060001B7D5BB20393059B013BDBB20593092EED
:103070000AD90A21049805F00DFC0A2104903000B9
:1030800005F008FC0600EAE7029807F063FC02007E
:103090000B003800290007F089F8060004980F009B
:1030A00007F058FC02000B003000390006F00CFE5F
:1030B0000F00060005F0ECFD050007F04BFC0200D8
:1030C0000B003000390007F071F80B00020005F02A
:1030D000D5FE05F0DDFD049B4519AB420FD8002558
:1030E000029B01330293019BAB4208D0029B092B48
:1030F00005D90198013003B20193012302930A26F6
:103100003100280005F04CFC00290CD1039B002B5A
:1031100009DD2800310005F0BDFB039B0500013BE4
:103120005BB20393ECE716260A2706ABF618029863
:10313000390005F035FC013E30313170029839001C
:1031400005F0A8FB0290031EF1D106AA16339B18C6
:103150009A1B31002000FFF7A0FC039B002B35D009
:103160001E000AAF013E76B2013F731C20D028003A
:103170000A2105F015FC3031397028000A2105F0CC
:1031800089FB0500EEE7C0465ED2000063D2000076
:1031900068D20000D0126341B0CF000068CF0000B9
:1031A000F168E388B5F8E43E0000244000CA9A3B89
:1031B0006B461B7B1025D9432E224B1906A8C254FF
:1031C0000AAB4A4220005918FFF767FC019B002B0D
:1031D0002ED065212000FFF7BDFD6B469D88019B29
:1031E000002B05DA2D212000FFF7B4FD6D42ADB2B2
:1031F000162306AA9B181E000A272800390005F08E
:10320000CFFB013E303131702800390005F042FB20
:1032100085B2002DF1D11623310006AA9B189A1B06
:103220002000FFF73AFC03E05D212000FFF792FD4C
:10323000A06A03E001002000FFF7C9FD0DB0F0BD5A
:1032400005682A1E03D0280008F0BEFA02002900F3
:103250002000FFF7A7FDEBE70168CA880831F7E710
:103260000168CA880831DBE7026843681EE6C04689
:1032700070B50024B6B000900191100021000292B8
:103280000B9404F008FE282202A90CA807F016FDF2
:1032900028220CA916A8009D019E07F00FFD2822E8
:1032A00016A920A807F00AFD282220A92AA807F0BD
:1032B00005FD20A83494FFF7E5F816A83596FFF72A
:1032C000E1F8A54210D02AA92800FFF7B9FD0400B3
:1032D0002AA8FFF7D7F80CA8FFF7D4F802A8FFF741
:1032E000D1F8200036B070BD02492AA8FFF7E6FBEE
:1032F000349CEDE75ED2000070B50E0098B0154921
:10330000050004F054FD07AA0F928022D202124B4E
:10331000109201220493002304AC5242A28614AA04
:103320002371069313700D49C833220012A8169317
:10333000FFF736FC220001003000FFF729FB2A00CE
:10334000210012A8FFF794FF2000FEF7ABFF280032
:1033500018B070BD5DD2000004000020D3D0000082
:10336000F0B528499DB008AC070004F020FD0BAA79
:10337000E2628022D202244B14920122089300239D
:103380005242A28618AA13702371A36005A8C833FD
:1033900016AEA364FFF7CAF822001C493000FFF7FD
:1033A000FFFB22000100039005A80494FFF7F0FA48
:1033B00005A804F0ADFCFFF75BF922000090019135
:1033C00013493000FFF7ECFB051E0DD02100FEF77E
:1033D0007DFF7F222B7A93431A000C2313432B7219
:1033E000009A019B2A606B603A002100300005962C
:1033F0000694FFF73DFF2000FEF754FF38001DB094
:10340000F0BDC0465DD2000004000020D3D0000013
:10341000D6D0000000232F2806D90133392803D93C
:103420005E2803D97A2804D8180070470023402862
:10343000FAD900235A2282425B41DBB2F4E770B52D
:103440000400FFF742F82000FFF7E7FA27280BD027
:10345000222809D02000FFF7E0FA0500FFF7DAFF85
:10346000002805D1033070BD2000FFF705FCFAE706
:103470000023290063762000FFF739F82000FFF7CA
:10348000CCFA0500FFF7C6FF0028F1D1606843427F
:1034900058418000E7E7F0B5DBB285B004000F00CB
:1034A00001930525002B0CD000234376FFF7C4FAC7
:1034B000051E06D17D212000FFF72FFB002845D0F7
:1034C0000025280005B0F0BDA268636839009B188C
:1034D0001D726268E369083202A8FFF72AFB029DA9
:1034E000002D45D12000FFF7F5F8E269060039000C
:1034F00002A8FEF735FF029D002D01D10435E0E75B
:1035000080222B7A5242134308362B72EE60019BC5
:103510002900013B0022200000F034F8051ED0D124
:103520002000FFF789FA051ECBD17D212000FFF78F
:10353000F4FA0028C4D12C212000FFF7EEFA00286D
:1035400014D02000FFF778FA051EBAD12000FFF74B
:1035500076FF051EB5D12000FFF76EFA051EB0D12B
:103560003A212000FFF7D9FA0028ADD10325A8E7BA
:10357000E1692800FEF7AAFE7F222B7A93432B7283
:10358000C5E70000F0B585B004000E001F1CFFF772
:1035900053FA051E01906AD12000FFF73EFA662813
:1035A00000D188E01AD8272804D05B281FD0222811
:1035B00000D08AE02000FEF788FF2000FFF75CFBC8
:1035C000051E54D12000FFF785F87F22337A306042
:1035D00093431A0005231343337248E074285CD0E8
:1035E0007B2847D06E2800D06FE051495FE07F22F2
:1035F000337AFFB293431A004023134333720123FB
:103600005B42338073800525002F30D06B461B79D9
:1036100020006376FFF710FA051E28D15D212000F7
:10362000FFF77BFA002800D07BE03100E26902A8B6
:10363000FEF796FE0299002900D176E07B1E00225B
:103640002000FFF79FFF051E11D12000FFF7F4F9BE
:10365000051E0CD15D212000FFF75FFA002860D124
:103660002C212000FFF759FA0028DED1032528007D
:1036700005B0F0BD7F22337A310093431A00202336
:103680001343337201235B423380738000223B1C5F
:103690002000FFF700FF0500E9E77F22337A254984
:1036A00093431A000623134333720123337020001F
:1036B000FFF7DDF9EFE77F22337A357093431A0085
:1036C0000623134333721C49F1E72000FFF7A5F9E5
:1036D00000252027EBB22F280CD939280CD801352A
:1036E000402D20D0002363766319D8772000FFF7A0
:1036F00094F9EFE72B28F2D002002D3AD2B2012A3A
:10370000EDD90200BA43D2B2452AE8D00022200007
:10371000E3180133DA7720303100FFF711F8002881
:10372000A4D00025A3E73F23F0E704259FE7C04688
:103730005ED2000063D2000068D20000F0B50C0039
:10374000B5B001907B212000170004F036FCA3687F
:103750002100020004A804F035FC8023DB0216934C
:10376000012300250AAC5B42A3861AAB1D70049EA0
:10377000069B4C490DA82571A560F318E0620A91DB
:103780000293FEF748FD25710A9DA068002805D028
:1037900003682900A360FEF719FDF6E71AAB18705D
:1037A000029B1CAD1D901E901C940022287318A92A
:1037B000219320960A23687628002394FFF7E2FEDF
:1037C0006868002803D01C9B1968FEF7FFFC3900CD
:1037D00007A804F04EFB0AAF07A91DA81C9704F028
:1037E00048FB07A804F094FA1D9B1C9D02932B0034
:1037F00038331C1E2BD0202208331B7813401C1E8C
:1038000025D00024029BA34221D01F9B298F2A0090
:1038100007A80393FEF794FC079C002C17D0E668DA
:10382000301E01D007F0D0FF039B83420AD1002352
:10383000039A9A420BD0029AD15CF25C914201D178
:103840000133F5E7290007A8FEF77AFDE4E71649FA
:1038500001981C9D04F0ABFA002C06D07F22237A3D
:103860001340042B09D0052B19D02900019A200000
:1038700007940895FFF7FCFC05E021680029F4D0C7
:10388000019804F008FB1DA804F042FA3800FEF786
:1038900009FD04A804F03CFA019835B0F0BD216898
:1038A0000831EBE7040000205DD20000F0B54B4B7F
:1038B000A5B01C68056804F019FC494A4949136819
:1038C000C31A8B4233D9106001A800F097FC2A007C
:1038D000454B01A90FA801F047FC2200012320213C
:1038E00007A807F031FF414C4149200004F04EF990
:1038F00007A9200004F066F907A90FA801F07CFDD4
:103900000FA801F085FD05003A49200004F03EF9BA
:103910000A222900200004F0A6F90FA8C82D08D01B
:1039200001F046FC344B21A80F9304F0F1F925B0C7
:10393000F0BD01F06EFE0500431C07D10FA801F099
:1039400037FC2E49200004F03DF9EBE72C4920001C
:1039500004F01CF90A222900200004F061F9294929
:10396000200004F02FF9284E2900300001F0C6FE97
:10397000002804D10FA801F01BFC2449E2E7002D28
:103980000EDD6B46DF1C012239000FA804F09AF906
:10399000002805D03978300001F0D2FE013DEEE775
:1039A000300001F07EFE0FA801F002FC002D0ADDC0
:1039B0001749200004F0EAF829000A22200004F048
:1039C0002FF91449BEE71449200004F0FBF8200049
:1039D00002F004FD300001F0CBFEA3E7140000204C
:1039E000F00200206F17000088130000B0080020CC
:1039F000DCD00000F3D00000B8D3000008D10000F4
:103A000051D1000076D10000840300207DD1000058
:103A1000C8D10000ECD1000010D20000F0B58FB08A
:103A2000050008A80F000092019300F0E7FB424E4A
:103A3000424A316808A800F0F3F9414C002856D0FA
:103A40004049200004F0A2F83168200004F09EF8FC
:103A50003D49200004F09AF80A223849200004F079
:103A6000FEF82900200004F0A3F8384902A804F069
:103A70009EF902A905A804F0FCF9290005A804F0A4
:103A800067FA334904F071FA324904F06EFA3249A8
:103A900004F06BFAB96804F076FA304C210004F0B7
:103AA00064FA210004F061FA390004F051FA0100CF
:103AB00008A804F064F805A804F02AF902A804F0A4
:103AC00027F908A800F030FB0028FAD008A800F079
:103AD0002BFB002821D008A905A804F005F905A9A9
:103AE000009804F004FA05A804F012F9EEE71C4966
:103AF000200004F04BF83168200004F047F8124928
:103B0000200004F043F80A220C49200004F0A7F832
:103B10002900200004F04CF8D3E7009905A804F030
:103B2000A8F905A8FEF75CFD019B186005A804F044
:103B3000EFF80FB0F0BDC046080000208813000069
:103B4000B0080020F8CF000013D0000015D000000E
:103B50001BD0000027D0000048D0000024D0000077
:103B600059D0000030B54B4C91B0210001A804F0B1
:103B70001EF90023210004A8009304F018F90DA8F1
:103B8000FFF7EEFB0DA904A804F07DF90DA804F0E1
:103B9000BFF8414B0AA8196804F009F904A90DA857
:103BA00004F067F96B4601AA0DA90AA8FFF736FFD2
:103BB0000DA804F0ADF80AA804F0AAF8CA23009AE8
:103BC0005B009A4213D1354A136801331360022B0C
:103BD0000ADD334B0DA8196804F0E9F80DA8FFF7CA
:103BE00065FE0DA804F094F82E4804F0B5FA009B89
:103BF000C83B642B45D801A907A804F03AF92A4923
:103C00000AA804F0D4F80AAA07A90DA8FFF796FDA0
:103C1000264D0DA9280003F0CBFF0DA804F078F87D
:103C20000AA804F075F807A804F072F801A907A81B
:103C300004F01FF91E490AA804F0B9F80AAA07A956
:103C40000DA8FFF77BFD0DA804F003FA04000DA8F2
:103C500004F05EF80AA804F05BF807A804F058F82E
:103C60000A222100280003F0FEFF124D280000F078
:103C700069F8280000F06AF8200004F06DFAFEF7F9
:103C8000C3FC04A804F044F801A804F041F811B002
:103C900030BDC0465DD2000010000020EC020020C4
:103CA00008000020102700006ED20000B00800209D
:103CB00076D20000F8020020962110B51D4C8EB07F
:103CC0008901200002F078FA200002F0C5FB0028EC
:103CD000FAD0FEF799FC184902A804F068F800230E
:103CE0000193164B0BA8196804F061F805A8FEF7BC
:103CF0001DFC05A908A8FFF7FFFA01AB02AA08A955
:103D00000BA8FFF78BFE08A804F002F805A803F043
:103D1000FFFF0BA803F0FCFF0949200003F036FF6A
:103D200002A9200003F044FF02A803F0F1FF0EB047
:103D300010BDC046B00800205DD200000C0000207D
:103D40007CD2000010B501F021F810BD10B500F0D4
:103D5000D5FF10BD10B50C0001F076F80622010069
:103D6000200006F0ABFF200010BD10B501F042F8B6
:103D700010BD10B50800110001F01CF910BD43681A
:103D800010B5002B00D0984710BDF8B5050008000D
:103D90000E00170007F018FD0400380007F014FDAE
:103DA000E1B2C3B23A00300000F0ACFF0424431C7F
:103DB00014D004F09BF90024060004F097F92B6856
:103DC000801B98420AD22800FFF7D9FF642004F034
:103DD000C3F901F00FF804000228EED92000F8BD65
:103DE0000022024B024906C37047C046F802002079
:103DF00050C300000020704713B56B460268D971AC
:103E00000733546819000122A04716BD0175704799
:103E10007047007CFF38431E9841C0B270470000D5
:103E200070B50E0086B0040002A8150003F0C4FDB2
:103E300002AA31000848FFF79CFF00280AD0074A71
:103E400023680492039ADB690192059204A92A006F
:103E50002000984706B070BDF802002058D9000035
:103E600070B5037C04000D001600FF2B02D0036820
:103E70009B6A984700F072FC02002074FF281ED055
:103E800068680023310000F09FFA04F02FF9050064
:103E900023682000DB6A9847002809D104F026F93E
:103EA0000A4B401B984203D8012004F055F9EFE774
:103EB00023682000DB6A9847431E984170BD04497F
:103EC000044803F07FFE0020F8E7C0460F270000FB
:103ED000E6D20000B008002070B5037C04000D009D
:103EE0001600FF2B02D003689B6A984700F036FC4F
:103EF00002002074FF281ED068680223310000F001
:103F000063FA04F0F3F8050023682000DB6A9847A1
:103F1000002809D104F0EAF80A4B401B984203D864
:103F2000012004F019F9EFE723682000DB6A9847C5
:103F3000431E984170BD0449044803F043FE00202D
:103F4000F8E7C0460F270000E6D20000B0080020C6
:103F500070B5037C04000D001600FF2B02D003682F
:103F60009B6A984700F0FAFB02002074FF281ED0DD
:103F700068680423310000F027FA04F0B7F8050060
:103F800023682000DB6A9847002809D104F0AEF8C6
:103F90000A4B401B984203D8012004F0DDF8EFE7FC
:103FA00023682000DB6A9847431E984170BD04498E
:103FB000044803F007FE0020F8E7C0460F27000082
:103FC000E6D20000B0080020F7B5037C04000E0024
:103FD0001700FF2B02D003689B6A984700F0BEFBD6
:103FE00005002074FF2825D0300007F0EDFB0223E8
:103FF000C1B2019300953B000022300000F026FA88
:1040000004F074F8050023682000DB6A9847002854
:1040100009D104F06BF80A4B401B984203D80120E9
:1040200004F09AF8EFE723682000DB6A9847431E04
:104030009841FEBD0349044803F0C4FD0020F8E7A1
:104040000F270000E6D20000B0080020F7B5037C7F
:1040500004000E001700FF2B02D003689B6A9847EC
:1040600000F07CFB05002074FF2825D0300007F00D
:10407000ABFB0423C1B2019300953B00002230004A
:1040800000F0E4F904F032F8050023682000DB6A50
:104090009847002809D104F029F80A4B401B9842A0
:1040A00003D8012004F058F8EFE723682000DB6A0A
:1040B0009847431E9841FEBD0349044803F082FD22
:1040C0000020F8E70F270000E6D20000B00800202B
:1040D000F8B50500007C0E001400FF2804D1012370
:1040E00000246B602000F8BD002AF8D092B200F0E6
:1040F000A7FA002815D12B7D002B03D1287C00F0D6
:10410000F9F9ECE72B6822005F6C310001232800ED
:10411000B847041EF2D0287C00F0D4FA0028DED084
:10412000E0E70400F7E7000010B5017C0020FF295C
:1041300002D0024800F0DEF810BDC04600030020A7
:10414000036837B51B6904009847002809D06B46FF
:10415000DD1D217C01232A00034800F007F928789F
:104160003EBD01204042FBE70003002010B50C00DB
:104170001300017C2200024800F0F8F810BDC04690
:104180000003002010B5017C014800F0DFF810BDED
:104190000003002007B500236A4601931380007CCA
:1041A00001A900F067FD6B466A461B7850781B0238
:1041B000C01880B20EBD13B500236A4604000193F7
:1041C0001380087C01A900F055FD01A9200003F02F
:1041D00009FC200016BDF8B505000E001700002BE5
:1041E0000AD00524BAB2287C310000F029FA002850
:1041F00003D1013C002CF5D10020F8BD0023436021
:10420000FA239B008360044B08330360FF2303748D
:10421000FE3B03757047C046FCD2000010B5037C1E
:104220000020FF2B02D0180000F098F910BD00000C
:1042300070B50400007CFF2814D000F05BF9322533
:104240002000FFF7EBFF002806D0013D002D03D032
:10425000642003F081FFF3E7217C034800F030F88D
:10426000FF23237470BDC0460003002070B5037C9B
:1042700004000025FF2B05D003681B699847A8425E
:1042800002D00125280070BD2000FFF7C7FF0A28D3
:10429000F7D8054BC340DB07F3D5217C034800F07A
:1042A0000FF8FF232374EDE7EF0400000003002064
:1042B00010B504007822002106F01CFD200010BD7E
:1042C00010B50C244C4304192068002805D006F0D2
:1042D000D9FC002363602360A36010BD70B50500A6
:1042E0000024210028000134FFF7EAFF0A2CF8D14E
:1042F000280070BDF7B50C244C430419A3680500D1
:104300000E00002B1AD12768002F05D10E4806F0A9
:10431000AFFCA760606020606B469F1D0A4BF0B247
:104320003A0021683B8000F04FF9002806D023684E
:104330003A8863600C237343EB189A600C235E4346
:10434000AD19A868FEBDC046DC05000070B50400CC
:104350000D00FFF7CFFF002805D00C21694364183A
:104360006368187870BD01204042FBE7F8B506008D
:104370000C0017001D00FFF7BDFF002811D085427B
:1043800000DD05000C235C4334192A006168380005
:1043900006F094FC280063685B196360A3685B1BEC
:1043A000A360F8BD10B5054C2000FFF781FF044A5B
:1043B0000449200004F05CFA10BDC0460003002050
:1043C00000000020DD4200007FB50E0069468C1C15
:1043D00023701D4BCD1C1B7801902A70002B01D13E
:1043E00000F00CFA002000F0E3F900F07DFA04215F
:1043F0002D2000F02BFC002201A8042100F0E8FA97
:104400003000002100F010FC28000022012100F003
:10441000DFFA01222000110000F0DAFA00F08CFA35
:10442000002000F0C5F900F05FFA0E220F230021F2
:104430006A446B44117019702D20013100F0F0FABC
:1044400000F07AFA7FBDC04679030020F0B51C0069
:10445000274B85B01B7806000D000192002B01D17F
:1044600000F0CCF9002000F0A3F900F03DFA05219E
:104470002D2000F0EBFB30000022290000F0A8FA0C
:104480000022042101A800F0A3FA0021200000F07E
:10449000CBFB002201210AA800F09AFA01220BAE00
:1044A0001100300000F094FA03272C0011343C4036
:1044B0000135002C02D000F06BFAF6E700F03CFA70
:1044C0003078043843425841C0B200F071F900F02E
:1044D0000BFA0E220F236A446B4401212D20147025
:1044E0001C7000F09DFA00F027FA05B0F0BDC04640
:1044F000790300201FB56B46DC1D174B20701B781D
:10450000002B01D100F07AF9002000F051F900F001
:10451000EBF901212E2000F099FB0122200011006F
:1045200000F056FA00F034FA00F032FA00F004FA23
:10453000002000F03DF900F0D7F90E220F230021F2
:104540006A446B44117019702E20013100F068FA32
:1045500000F0F2F91FBDC046790300201FB56B467D
:10456000DC1D184B20701B78002B01D100F046F9A0
:10457000002000F01DF900F0B7F901212F2000F014
:1045800065FB01222000110000F022FA00F000FA81
:1045900000F0FEF900F0D0F9002000F009F90E2437
:1045A00000F0A2F90F2300226C446B441A702270B1
:1045B000012122002F2000F033FA00F0BDF920780D
:1045C00004B010BD7903002073B56B46DD1D0E00ED
:1045D0001400287000F00AF9002801D1208076BD6F
:1045E000164B1B78002B01D100F008F9002000F0D9
:1045F000DFF800F079F90221452000F027FB0022C6
:104600000121280000F0FBFA01220221200000F025
:10461000F6FA00F0BDF900F08FF9002000F0C8F8BC
:1046200000F062F922003100452000F0B6FA00F0F7
:1046300083F92088431E9841C0B2D0E77903002057
:104640007FB56B46DC1D1E4B0E001B7815002070DD
:10465000002B01D100F0D2F8002000F0A9F800F002
:1046600043F90221442000F0F1FA00220121200048
:1046700000F0C5FA30000122290000F0C0FA03263C
:104680002C00093434400135002C02D000F080F9B0
:10469000F6E700F051F90E25200000F089F800F04F
:1046A00023F90D226D446A442900442014702C80A3
:1046B00000F0EAF900F040F9288804B070BDC04667
:1046C00079030020F0B50E2585B00F2700246B4636
:1046D00001266D446F44D8712C703C701E4B1B78C2
:1046E000002B01D100F08AF8002000F061F800F002
:1046F000FBF831002A2000F0A9FA6B4632003100A5
:10470000D81D00F065F900F043F900F041F900F020
:1047100013F9002000F04CF800F0E6F83B002A0006
:1047200031002A2000F07CF900F006F92B78002BEC
:104730000FD101346420A4B203F00EFD2B78002BBE
:1047400001D1182CCAD9193C601E8441E0B205B0D1
:10475000F0BD0024F2E7C04679030020134B13B5E7
:104760001B78002B01D100F049F8002000F020F860
:1047700000F0BAF800213F2000F068FA00F0DCF801
:10478000002000F015F800F0AFF86B469C1DFF23E9
:1047900023706B46002207331A70012122003F204C
:1047A00000F03EF900F0C8F8207816BD790300202B
:1047B00070B5050003F09AFC0400094B187803F06B
:1047C00091FF00280BD0002DF7D003F08FFC054B94
:1047D000001B9842F1D80448FFF7D1FAEDE770BD0D
:1047E000180000200F270000F802002010B51E203E
:1047F00003F078FF431E984110BD0000F8B51C235C
:10480000234E244F3370244C07333B70BD33237049
:1048100001F066F9214DDF2804D801232B7023789D
:10482000DB4323703078012103F0E4FE3878002167
:1048300003F0E0FE2078012103F0DCFE01211E20C0
:1048400003F0D8FE01211E2003F020FF3078012163
:1048500003F01CFF2978207803F018FF0A2003F0EA
:104860007BFC297801252078694003F00FFF0C4874
:1048700003F072FC00211E2003F008FF00211E201F
:1048800003F0B8FE074801F09BF8074B1D70F8BD18
:104890001A000020180000201900002078030020D2
:1048A000EE020000D00300207903002010B5094B70
:1048B0001978094B187803F0E9FE084B00211878A5
:1048C00003F098FE064800F0A4FF0022054B1A7082
:1048D00010BDC04678030020190000201A000020F7
:1048E000D00300207903002013B500246B466A46EC
:1048F0001C7101235371019A0B490C4801F088F88F
:104900000B4B2100187803F0C1FE03F0EFFB04000D
:10491000084B187803F0E6FE012804D003F0E6FB0C
:10492000001B0428F4D913BD00127A00D003002024
:104930001A0000201800002010B5044B012118783F
:1049400003F0A4FE024800F0E3FF10BD1A000020AF
:10495000D003002007B56B46D871D9790248C9B297
:1049600000F05FFF0EBDC046D003002010B504006C
:10497000FF20FFF7EFFF207010BD70B50C000500A1
:104980000800FFF7F3FF2078401B4342584170BDF9
:1049900013B56B46DC1D002320002370FFF7E6FFF4
:1049A000207816BD70B50500084CFFF7F1FFEF2821
:1049B00008D0013C002C01D0A842F6D1401B434254
:1049C000584170BD01204042FBE7C046E9030000AA
:1049D000F8B5050008000E0017002C00FFF7BAFF1D
:1049E000631B9E4204DD2078FFF7B4FF0134F7E734
:1049F000012F02D1EE20FFF7ADFFF8BD10B5040086
:104A0000000AFFF7A7FFE0B2FFF7A4FF10BD10B543
:104A10000400FF20FFF79EFF002C00D0207010BD87
:104A2000F0B585B01F0002ABDC1D00230500E020BF
:104A3000019116002370FFF7B5FF002802D1002076
:104A400005B0F0BD2000FFF791FF802223781543C9
:104A5000AB42F4D12000FFF789FF2378019A9342FB
:104A6000EDD13800FFF7D3FF35003A78AB1B9A42FF
:104A700004DD2800FFF77AFF0135F6E72100EE207C
:104A8000FFF77BFF0120DBE7F7B56B46DC1D00235A
:104A90000500E0200E0017002370FFF783FF0028B9
:104AA00001D10020FEBD2000FFF760FF80222378A7
:104AB0001543AB42F5D1FFF76BFF00280DD038004E
:104AC000FFF7A5FF35003A78AB1B9A4205DDFF20C2
:104AD000FFF740FF28700135F5E72100EE20FFF7D2
:104AE0004CFF0120DEE7F0B587B004ABDE1D0023EC
:104AF0000500E020039114003370FFF753FF0028F6
:104B000002D1002007B0F0BD3000FFF72FFF802258
:104B100033781543AB42F4D1FFF73AFF01900028F8
:104B2000EFD005234343E3180293029B9C421AD023
:104B3000FF20FFF70FFF002720702378BB4210DD16
:104B4000A37865781B022B43E578FF202D042B43C7
:104B500025792D061D43FFF7FDFEED19287001375D
:104B6000EBE70534E1E7019B039A9342C9D1310099
:104B7000EE20FFF702FF0120C4E770B50500FF201B
:104B8000FFF7E8FE0400FF20FFF7E4FE24022043C5
:104B900080B2002D00D0288070BDF0B5002485B013
:104BA00002AB0700DD1DE020019116002C70FFF71D
:104BB000F9FEA04202D1002005B0F0BD2800FFF7A9
:104BC000D5FE80222B781743BB42F4D1FFF7E0FEDD
:104BD00000280ED03000FFF7D0FF3388A34208D959
:104BE000019BFF201F19FFF7B5FE01343870A4B2F6
:104BF000F3E72900EE20FFF7C0FE0120DCE770B5E7
:104C000004000D0008001600FFF7F8FE6519AC421D
:104C100004D02078FFF79EFE0134F8E7012E02D180
:104C2000EE20FFF797FE70BD70B5040002200D0066
:104C3000FFF790FE200AFFF78DFEE0B2FFF78AFE35
:104C4000012D02D1EE20FFF785FE70BD70B5040086
:104C5000E0200D00FFF77EFE7F202040FFF77AFE68
:104C60002800FFF777FE002D02D1EE20FFF772FE3D
:104C700070BD000070B586B06B46DE1D0C001500DF
:104C800030700622002103A806F034F80D23220A12
:104C90006B441C705A70220C240E9A70DC70122324
:104CA0006B441D802D0C5D80134B1B78002B01D1B4
:104CB000FFF7A4FD0020FFF77BFDFFF715FE0121A4
:104CC0003A20FFF7C3FF012230001100FFF780FEFA
:104CD000FFF75EFEFFF75CFEFFF72EFE0020FFF7FA
:104CE00067FDFFF701FE03AA02213A20FFF7FBFE52
:104CF000FFF722FE06B070BD7903002010B5FFF764
:104D0000D5FD10BDF7B51D001F4B07001B780C002B
:104D10001600002B01D1FFF771FD0020FFF748FDC1
:104D2000FFF7E2FD02211120FFF790FF2100002292
:104D30003800FFF74DFE300001222900FFF748FE42
:104D40000326063464192500354003D0FFF720FE02
:104D50000134F8E7FFF7F0FD2800FFF729FDFFF722
:104D6000C3FD6B469C1D22000733012111202570D5
:104D70001D70FFF755FE002801D1FF232370FFF7B8
:104D8000DBFD00202056FEBD79030020184B13B533
:104D90001B78002B01D1FFF731FD0020FFF708FD44
:104DA000FFF7A2FD30200121FFF750FF6B460122E3
:104DB000581DFF2311000370FFF70AFEFFF7E8FDFF
:104DC000FFF7E6FDFFF7B8FD0020FFF7F1FCFFF766
:104DD0008BFD6B4600219A1D07331170197030202E
:104DE0000131FFF71DFE0400FFF7A6FD60B216BDFE
:104DF00079030020134B13B51B78002B01D1FFF76B
:104E0000FDFC0020FFF7D4FCFFF76EFD0021202001
:104E1000FFF71CFFFFF790FD0020FFF7C9FCFFF72D
:104E200063FD6B469C1DFF2323706B4600220733F6
:104E30001A70012122002020FFF7F2FDFFF77CFD10
:104E4000207816BD79030020184B13B51B78002B72
:104E500001D1FFF7D3FC0020FFF7AAFCFFF744FDC8
:104E600022200121FFF7F2FE6B460122981DFF234D
:104E700011000370FFF7ACFDFFF78AFDFFF788FD17
:104E8000FFF75AFD0020FFF793FCFFF72DFD6B465F
:104E90000022074C07331A70012122002220FFF75D
:104EA000BFFDFFF749FD200016BDC0467903002075
:104EB0007A030020204B73B51B780400002B01D12E
:104EC000FFF79CFC0020FFF773FCFFF70DFD0121AD
:104ED0003420FFF7BBFE200006F076FC0122C1B2B1
:104EE0002000FFF775FD200006F06EFC0326441D30
:104EF0002500354003D0FFF74BFD0134F8E7FFF7FD
:104F00001BFD2800FFF754FCFFF7EEFC6B469E1DCF
:104F10009D7132000733012134201D70FFF780FDA1
:104F2000C4B2FFF709FD002C04D03478013C604284
:104F30004441E4B2200076BD79030020FF2130B562
:104F400087B00B00050000910A0004A802F03CFDA8
:104F5000174B1B78002B01D1FFF750FC0020FFF707
:104F600027FCFFF7C1FC00213520FFF76FFEFFF79C
:104F7000E3FC0020FFF71CFCFFF7B6FC0B2300222C
:104F80006B441A70012103AA3520FFF749FD041E66
:104F900008D003A9280002F031FD059B6C68E41AD3
:104FA000631E9C41FFF7C8FC200007B030BDC0461F
:104FB0007903002010B50C00FFF77CFF03000020F0
:104FC000834202D02000FFF7B9FF10BD10B5006981
:104FD00003689B69984710BD10B500690368DB68DA
:104FE000984710BD1FB5006949680368044C0191DA
:104FF0000391DB69029402A9984704B010BDC04632
:1050000058D9000010B5006903681B6A984710BDA5
:1050100010B500690368DB6A984710BD0069431E3C
:105020009841C0B27047006C70470164704703003C
:1050300010B538331B780400002B06D120690368B3
:105040005B699847002808DA10BD03681B69984718
:105050000028F3D101204042F6E7E21CD17F0B008B
:10506000083B022BF0D8A36A002B02DDE36A013370
:10507000E3620A29E8D1E36B013BE363002BE3D150
:105080000933D377E0E710B50400006903685B6A71
:105090009847E31CDB7F083B022B07D8A36A002B51
:1050A00004DD002802DBE36A1B18E36210BDF7B5DC
:1050B000C51CEB7F0400092B0ED1FF272069036874
:1050C0001B699847002807D0206903685B699847E7
:1050D000C6B20A2E18D1EE77EB7F0A2B04D1E36B10
:1050E000002B01D10933EB77EB7F0020092B0AD08D
:1050F000206903681B699847EB7F0A2B03D1E36B98
:10510000984200DD1800FEBD0D2ED7D0384005F0C6
:1051100094FD0028D2D00021E36B01A81022018069
:1051200006701E0106F0DAFB3618E663C6E70000DB
:105130000023C21CD377012252428262074A436293
:105140001268C3620263064A126842630200383280
:105150001370C363034B03647047C04620000020F4
:10516000240000203075000070B51D00002343604E
:10517000FA2304009B0083600B4B0161083303603A
:105180004261183002F018FC220001232000443252
:105190002584064913705370483002F008FE200041
:1051A000FFF7C6FF200070BDB0D300005DD2000045
:1051B00010B50400006903689B6A98472000FFF758
:1051C000B7FF10BD70B504001500006902F0DEFCE9
:1051D0000449206902F0DAFC2900206902F0F2FC9F
:1051E00070BDC046C1D0000070B504000D0000695C
:1051F000110002F0CBFC2049206902F0C7FC290015
:10520000206902F0C3FC1D49206902F0DBFC230089
:1052100045331B78002B1FD06369002B16D018492B
:10522000206902F0B3FC6169206902F0AFFC238CB5
:10523000502B08D01349206902F0A8FC218C0A22C7
:10524000206902F00CFD206902F0AAFC0E4B0F4908
:105250001A682000FFF7B6FF230044331B78002BA9
:1052600004D00B4A0B492000FFF7ACFF01230334A5
:105270000020E37770BDC0467CD300007ED30000E1
:1052800088D3000013D000001C0000208FD3000042
:105290009AD30000A0D3000070B504001500006987
:1052A00002F074FC0449206902F070FC29000A2213
:1052B000206902F0D8FC70BDC1D0000010B5040018
:1052C000006902F06DFC02230334E37710BD70B572
:1052D000C31CDB7F04000D001600012B01D8FFF773
:1052E000EDFF20693200036829005B68984770BDB4
:1052F00070B5C31CDB7F04000D00012B01D8FFF744
:10530000DDFF2069290003681B68984770BD10B550
:105310000400206903681B699847002804D02069AD
:1053200003685B699847F4E710BD0000F0B585B0ED
:105330000192C51C1F00EB7F0400083B0E00022BEE
:1053400004D8FFF7E4FF2000FFF7F2FEED7F012D08
:1053500047D8230044331B78002B0CD020696169A7
:105360000368228C002916D12049DB690291E1698A
:10537000039102A910E020690368DB6A98470028BE
:10538000ECD03100019A2000FFF72EFF061E09D055
:10539000300005B0F0BD1B6A98470028F1DC0126FB
:1053A0007642F5E7002F04D03A0011492000FFF7BC
:1053B00009FF0A9B002B16DD1A000E492000FFF79B
:1053C0006BFF0B9B002B0ED001252000FFF776FF13
:1053D000002DDDD023680A9A5B680B99200098475E
:1053E000D6E70226DCE7002DD2D1EEE758D900003F
:1053F00058D3000065D3000007B5012200235242B4
:1054000000920193014AFFF791FF0EBDABD300005C
:10541000F7B5C61CF37F0400012B49D900250023F2
:1054200063620233F37702F061FE2B4F01900A2D85
:1054300040D002F05BFE019BC01A236C98423FD221
:10544000236820001B699847002827D02368200084
:105450005B6998470500431CEBD0F37F022B05D016
:10546000032B0FD002F042FE0190E0E73B782A2B9D
:1054700001D0834219D17B780137002BF2D103335D
:10548000F377EFE70200303A092A01D90423F7E75E
:105490000A23616A4B439B186362E3E7FA208000AA
:1054A00002F05AFEC3E70A2D14D104204042FEBD8B
:1054B0000220FBE7636AC72B02DC652B00D00025C6
:1054C000F37F042BEFD1606AC72801DC6528A6D1E1
:1054D0000A2DECD00320E9E774D3000070B5040076
:1054E0000368FF255B699847E31CD97F0A00083AE7
:1054F000022A01D8284070BDC2B22840052930D008
:10550000072938D0042951D1256B297891420BD134
:10551000691C21636978002903D10525DD77A16223
:10552000E1620A2AE7D135E0616B0E7896420BD131
:105530004D1C656349780029F3D1210001253831DC
:105540000D700621D977ECE71A4E3668B542F8D1CE
:10555000194D2D68A942F4D10D2AF2D1063ADA7715
:10556000C9E70500303D092DEBD80A21A66A714331
:105570004919A162D5E70A2ABDD122003832127832
:10558000002A10D00922DA770022E263DA7F083A93
:10559000022AB0D90422DA77064B1B682363064B34
:1055A0001B686363A7E70822DA77EFE70A2AA2D12C
:1055B000ECE7C0462000002024000020F8B50400DD
:1055C00002F094FDFA270500BF00E61CF37F083BBC
:1055D000022B0FD902F08AFD236C401B984209D29E
:1055E000236820001B69984700280BD1380002F07F
:1055F000B3FDEAE7F37F0020083B022B01D903202B
:105600004042F8BD2000FFF769FF02F06FFD050082
:10561000DBE710B5C31CDB7F0400083B022B01D97C
:10562000FFF7CCFFA06A10BD70B5C31CDB7F040080
:10563000083B022B01D9002070BDFFF7EAFF431C95
:10564000F9D02000E56AFFF7E4FFEB17C20F8542AF
:105650005341D8B2F0E710B5FFF7E6FF10BD10B523
:10566000FFF7E2FF10BD704710B5040002F0ECFD3B
:10567000200010BD10B5044B04480833044A054906
:10568000036003F0F5F810BD28D40000800300206B
:10569000000000206756000010B503681B6898479B
:1056A00010BD70B50400A56AA168280003F078F960
:1056B000002905D02368FF219B6820009847F2E766
:1056C000A369ED1A256270BD7047406970470000FC
:1056D00010B5040000F064F8074B626808332360DB
:1056E000E36820009B1A5B086361D318A361002361
:1056F00023626362A36210BD38D4000070B5040059
:105700006369080000268B4214D3A568290003F0C2
:10571000C1F8802101304543A369074A25626662CA
:10572000A362536801368B435360A268216AA06963
:10573000024B9847300070BD004000413900002006
:1057400010B5436AC21801331177042B02D04362AB
:10575000012010BD0023C2694362836A1A60836A14
:1057600004338362014B9847F2E7C04629000020CA
:1057700010B572B6024C8368026A81694068A0471E
:105780006500002010B50248FFF7A2FF10BDC0461B
:1057900084030020C368426800699B1A181A704786
:1057A0000D4B0E4A03600E4B0E49436093685B033A
:1057B0005B0F9B005B580C498360926892B25A431E
:1057C0000A4B1B685B065B0F9B005B58D31AC360D8
:1057D000002303617047C04664D4000000400041CC
:1057E00000200000A0D4000080D400000040800011
:1057F00070B506000C008D18AC4207D033682178D4
:105800009B683000984720700134F5E770BD704701
:10581000704710B50400406800F0E8FA00232376D2
:1058200010BD10B5406800F006FB10BDF8B50500CE
:1058300040680C0000F0FAFA2B68E7B2260A9B6871
:10584000012810D139002800FF2798472B68BC4356
:1058500004439B6831002800984703022000384029
:10586000184380B2F8BD310028009847FF262B6806
:105870000002344004439B68390028009847B44331
:105880002043EEE710B5040002F0DEFC200010BD5E
:1058900010B54B1C0BD0102909D0EFF3108472B651
:1058A000102905DD02234376002C00D162B610BD1D
:1058B0000123427E1A43427618224A43044989183A
:1058C00016228A569340C2691343C361ECE7C0466F
:1058D00000D500004B1C17D0102915D0437E9B0724
:1058E00012D4EFF3108272B618234B430749C9183C
:1058F0000123897D49B28B40C1699943C16100D1BF
:105900004176002A00D162B67047C04600D500003B
:10591000437E002B05D09A0704D5837E002B00D050
:1059200062B67047DB07FCD5C369024A9BB2D360FD
:10593000F7E7C04600180040037E002B04D14376F1
:105940008376C36101330376704700007FB5036936
:1059500002AE04000D00029172608B4203D1828A74
:10596000B3889A4226D0200006223100103005F07C
:10597000A5F9606800F051FA7379E17A013B581E8D
:105980008341227B00936068002300F087FB33791A
:105990000021013BDBB2022B01D8074AD15C074B47
:1059A0002A009D4200D91A00606800F007FA60687A
:1059B00000F029FA7FBDC046C0D40000001BB7002C
:1059C00070B518260400FFF7B7FF33000821207ACE
:1059D0000D4D4343EB18595602F09CFE330008214D
:1059E000A07A4343EB18595602F094FE0821607ADE
:1059F0004643AD19695602F08DFE044B200006CBDC
:105A0000FFF7A4FF70BDC04600D50000F0030020E2
:105A100007B5437E00910192002B07D09A070AD563
:105A2000EFF310835A425341837672B60099019A7C
:105A3000FFF78CFF07BDDB07F8D5C369014A9BB2AE
:105A40009360F3E700180040F7B500240125194BD7
:105A5000194A5D711A601C71184B1948083301937B
:105A60000360184B184F4360184B194E03810923EC
:105A70003A0031004575046104758372063B047673
:105A8000C472037302F0F4FE1248134B019A436090
:105A9000124B457503811D233100026004613A00F9
:105AA000047583721A3B05730476C37202F0E0FE3C
:105AB000F7BDC046F003002000093D00C4D400003B
:105AC000B003002088080020000000200A08000021
:105AD00011580000D0030020A00800201B1A00006D
:105AE0002420704770B50121202002F083FD0021A1
:105AF000202002F0CBFD0A2002F02EFB0021202006
:105B000002F078FD642002F027FB202002F004FD63
:105B1000962305009B002F4C984222DD2E49200041
:105B200000F0E2FA200000F0A0F903210B2002F0BF
:105B3000F1FD03210C2002F0EDFD00226B2120007D
:105B400000F0C8F90121200000F006FA1B21200016
:105B500000F002FA2000032100F0A6F9200000F076
:105B600099F91D49200000F0BFFA200000F07DF9EE
:105B700003210B2002F0CEFD03210C2002F0CAFD10
:105B800000226B21200000F0A5F90721200000F081
:105B9000E3F996232B219B009D4200DD2039200054
:105BA00000F0DAF90321200000F07EF9200000F077
