:1020000000800020A98000009180000091800000E5
:1020100000000000000000000000000000000000C0
:10202000000000000000000000000000918000009F
:10203000000000000000000091800000FD80000012
:10204000918000009180000091800000918000004C
:102050009180000091800000918000009580000038
:10206000918000009180000091800000918000002C
:10207000918000006D5C00005D5C000091800000BC
:10208000918000009180000091800000918000000C
:10209000000000009180000091800000918000000D
:1020A00091800000918000009180000091800000EC
:1020B0000000000010B5064C2378002B07D1054B1B
:1020C000002B02D0044800E000BF0123237010BDA4
:1020D000D00200200000000060DB0000044B10B5BF
:1020E000002B03D00349044800E000BF10BDC046E8
:1020F00000000000D402002060DB000010B50800E2
:10210000110009F045FA10BD10B5080008F0FAFCFE
:1021100010BD10B5080008F0EBFC10BD074A030025
:102120000020914208D08A091B68D2003F309B18DA
:1021300001405868090140187047C046FFFF000081
:102140002C3270B5040010000D00FFF7E7FFA580EA
:102150002060002803D043892000E38070BD014B3C
:10216000FAE7C046FFFF0000094A10B50B00040063
:10217000002094420AD80A68210012680931180028
:102180009047002802D00123C480838010BDC04640
:10219000FFFF00000C4B70B506000D0014009942C3
:1021A0000AD813680A009B6801000932200098478A
:1021B000002801D0C58070BD236820005B68310015
:1021C00098470020F7E7C046FFFF00000B0010B55E
:1021D0000A68010052681800904710BD70B50025CC
:1021E0000368002B11D01C000834A14210D19C8838
:1021F000013CA4B29C80002C07D11C68002D05D0A6
:102200002C6011001800FFF7E1FF70BD0460F8E7D3
:102210001D001B68E5E7F8B504000F000026A38C3D
:10222000216AB3420ED9F5004D196968002903D01F
:102230003B6838005B689847002301362B606B6071
:10224000B6B2ECE70023A3848C4206D03B6838008A
:102250005B68984704232462E384F8BD30B58B8C17
:102260000C6A013B9BB2DA00A4186268002A14D001
:10227000618825888D4210D94D1C65800C0112198A
:10228000002A0AD0012500249B016D42C91814724E
:102290005581D4600260818030BD00230360013B22
:1022A0008380F9E770B504000568A068002805D0B0
:1022B00003682900A360FFF789FFF6E72000216883
:1022C0000C30FFF7A8FF200070BD0000F7B5037ABF
:1022D00006000C00DB0706D50168200008312268E3
:1022E0000830FFF77BFF6023327A1A4225D0378807
:1022F000124B9F421DD0200039002C30FFF70EFFFB
:10230000438905000193037A7F2B05D9C16820001A
:1023100022680830FFF762FF21002800FFF7D6FF90
:102320007F222B7A93432B72A38E6B81A786019F0A
:10233000DEE701235B4233807380F7BDFFFF0000BF
:1023400070B5C5882C31040008002900FFF7E6FEAF
:10235000A5802060002801D04389E38070BD000083
:10236000F0B587B001900391968E444B14009E42C5
:1023700021D0100031002C30FFF7D0FE438901221C
:10238000A38600230500524203724281C360039B6F
:1023900059883A4B994200D16CE020002C30FFF76D
:1023A000BDFE039B46815E80019B019A1D609E805D
:1023B0006B89D3805BE013000C330293138E176894
:1023C000002B09D0029904A8FFF748FF049D002DB7
:1023D00002D004AB9E88DAE7238E668E9E4217D128
:1023E0008023DB009E423BD07600E16A0298B6B2C1
:1023F0003B68F20088422ED11B68110038009847D4
:10240000051E2DD02022029908F098FBE562668611
:10241000268EE36A751CF6009E19194BADB225860F
:10242000ED186B1E9D413B683F3529011B68380044
:1024300098477060431E9841002340420540358014
:102440007380029904A8FFF709FF049D04AB9E88DE
:10245000002D05D09BE79B6838009847051ED5D115
:10246000012323710023019A1360013B938001989B
:1024700007B0F0BD039B1E8095E7C046FFFF00003C
:1024800000FCFFFF70B50025436A0400C3181D71EE
:10249000011D006805F053FDA84200D06562606A26
:1024A00070BD70B5436A040001330D001F2B06D8C0
:1024B0000120636A5A1C6262E418257170BDFFF73F
:1024C000E1FF0028F4D00020F8E7002370B5836016
:1024D00043680400002B09D105681F202968FFF715
:1024E00043FE002801D101232B71606070BD70B5DF
:1024F000040040680E0000280ED0A168C3889942ED
:102500000AD12568490001312A68FFF743FE0028F7
:1025100001D101232B7160606368002B04D0A26895
:10252000511C9B18A1601E7270BD000030B50400E4
:1025300087B001AD284905F07AFC2900274801F051
:1025400049FC1022697903A805F090FC03A920003A
:1025500005F0E3FC03A805F01BFC1022297903A871
:1025600005F084FC03A9200005F0D7FC03A805F0C2
:102570000FFC1022E97803A805F078FC03A92000DD
:1025800005F0CBFC03A805F003FC1022A97803A8F2
:1025900005F06CFC03A9200005F0BFFC03A805F0C2
:1025A000F7FB1022697803A805F060FC03A920005E
:1025B00005F0B3FC03A805F0EBFB1022297803A873
:1025C00005F054FC03A9200005F0A7FC03A805F0C2
:1025D000DFFB200007B030BD0ED10000F802002064
:1025E0001FB501000D23092201A805F001FD01A876
:1025F00005F01CFD01A805F042FD040001A805F04E
:10260000C7FB200004B010BDF8B50023104E114DDB
:1026100030002B6001F0E9FB0F4C1049FF2813D06C
:102620002B68032B0FD00E49200005F0EFFA0D4F59
:102630002000390005F006FB0B4A3900300001F09C
:10264000E4FB2860ECE70949200005F0FBFAF8BD3F
:10265000F8020020F4020020B0080020E4CE0000C0
:102660000ACF0000EBD00000E0D0000027CF000030
:1026700010B5040001000A22064805F034FB064BA1
:1026800021001868C0B2012C00D0002106F014F817
:1026900010BDC046B00800201800002070B50068CA
:1026A00000280ED0C4884B689C42F8D100230D68E6
:1026B0009C4206D0C218EE5C127A9642EFD10133EA
:1026C000F6E770BDF7B54368826804009B180022E6
:1026D0001A72466805688768330028000833083096
:1026E000694600930197FFF7D9FF00280FD12A68A8
:1026F00039003000FFF74EFD002801D101232B7176
:1027000023689A680260986000236360FEBD838836
:1027100001338380FAE707B5CB0001680822C918A6
:10272000684608F00BFA0098019903B000BD00005C
:10273000F0B5037889B005000F002B2B2DD02D2B81
:102740002CD101352C3B01932B781A00303A092A01
:1027500002D92E2B00D0FFE0002000217F4E2B78E5
:102760001C00303CE4B2092C1AD8B14224D802D162
:102770007B4B984220D800230A2206F075FA0023EA
:1027800002940393E3434A1C01D1984214D8029B5C
:10279000039C0135C0186141E1E701350023D2E710
:1027A000002B09D1019B002B20D080231B069942CE
:1027B00002D80CD100280AD000246A4EB14220D998
:1027C0000A220023013406F02FFA24B2F6E77F2212
:1027D0003B7A93431A000A2313433B72002342427D
:1027E0008B413A607B60019809B0F0BD7F223B7A53
:1027F0003860796093431A00082313433B72012326
:1028000054E02B781A00303A092A03D8013424B254
:102810000135F6E72E2B1AD101352E78303EF6B26F
:10282000092E14D8504B9942F6D802D14F4B9842FA
:10283000F2D80A22002306F017FA00230496059323
:10284000013C049A059B24B280185941E4E72023F7
:102850002A789A430023452A44D16A782D2A27D121
:10286000023501330A260293B44600232E78303E07
:10287000F2B2092A32D8624653439A22F3181E193B
:102880005200964228DD029A3B7A7F24002A15D016
:10289000019A00200021002A01D080210906A343CB
:1028A0000C243860796023433B72029B01939AE7C2
:1028B0002B2A01D00135D5E70235D3E7019A002054
:1028C000002A07D02A490C22A34313433B723860E5
:1028D000796094E72749F6E70135C7E7029A002AAD
:1028E00000D05B422A78002A36D1E41806F004FAB8
:1028F00006000D00002C19DD1F4B079300230293E7
:10290000002C17D001231C420BD0029907A8FFF717
:1029100002FF02000B003000290007F0EBF906006F
:102920000D00029B64100133DBB2E8E7134B6442F5
:102930000793E3E7019B002B02D080231B06ED18D1
:102940007F223B7A93431A000C2313433B723200DD
:102950002B003A607B6052E70023A7E79999991909
:1029600099999999FFFF0F00999901009899999960
:102970000000F0FF0000F07F30CE0000E8CD000046
:10298000F0B587B00C1E029103922BD007688668C1
:10299000110020001500FFF799FC7F22237A934352
:1029A0002372002F1ED028002B6804A90830019341
:1029B00004970596FFF772FE00280BD08388013339
:1029C00083807F22237A206093431A0005231343D8
:1029D000237207E001993000FFF7C6FB002803D1FE
:1029E00001232B7107B0F0BD02000023049F0832C1
:1029F0009E4203D0F95CD1540133F9E700238619D4
:102A00003372AB680360A860DBE7437E002B09D11B
:102A1000026941698A4202D2531C0361137803762A
:102A200001234376007E704710B504002000FFF7B5
:102A3000ECFF0A2807D8092809D200280AD0012368
:102A4000002023730AE00D2801D02028F7D10023AD
:102A50006376EBE7207B431E9841013010BD70B5D3
:102A600005000C00207800280CD02800FFF7CDFFCF
:102A7000002806D02378834205D1002301346B76E9
:102A8000F0E7022070BD0320FCE7F8B50500160052
:102A90000C008F18BC4205D021782800FFF701FDFB
:102AA0000134F7E7AB6A9E19AE62F8BD70B5050058
:102AB00008000C0008F0C8FD210002002800FFF704
:102AC000E4FF70BDF0B51624070016001D0087B0A6
:102AD0006C44300029000A22002306F0A5F8013CCE
:102AE00030322270300029000A22002306F09CF8C0
:102AF0000D0006000143ECD116236B441A1B210084
:102B00003800FFF7C2FF07B0F0BD70B504000D003C
:102B1000FFF77BFF0023A84201D163760133180041
:102B200070BDF0B585B00400151E009306D122607B
:102B300001235B42A380200005B0F0BD02AF0988ED
:102B4000009A3800FFF7FCFA029B002B1AD02800ED
:102B5000DE6808F079FD0190301E01D008F074FDA8
:102B6000019B834209D10023019A9A420CD0E95C6F
:102B7000F25C914201D10133F6E700993800FFF78A
:102B8000DFFBE1E72360D3E7230006CF06C3D2E7EC
:102B90007FB504000D001600081E25D07F21237A82
:102BA00020220B421DD18B431343237201235B422E
:102BB00023806380684633002A002100FFF7B1FFBD
:102BC0000098002810D102A832002100FFF7C8FBAE
:102BD0000298002808D07F22037AC5601340037250
:102BE00002E01340181EE5D104B070BD37B50C00EB
:102BF000C1B27F2803D82000FFF779FC37BD00233E
:102C00006A463F25137080226B4629405242114389
:102C10008009597081B2C3B21F290CD840321343C6
:102C20006A469370D51C013D29780029E6D0200022
:102C3000FFF75DFCF7E769462B4000041343800D66
:102C40008B70C3B20F2805DC202252421343CB7095
:102C500001ADE8E71D40102380115B422A43184371
:102C6000CA7008714D1DDEE7F7B505000026FFF7B5
:102C7000CCFE6E7601902800FFF7C7FE0024019B72
:102C800001006C76834254D0A04201D10220FEBDE7
:102C90005C284AD12800FFF7B8FE0028F6D0274B61
:102CA000752838D104276C762800FFF7AEFE00287F
:102CB000ECD0402805D83038C0B20F2805D9032001
:102CC000E5E7202398433738F6E700232401013F46
:102CD0000443FFB2A4B26B769F42E5D1A0239B01CF
:102CE000E318174A9BB2934202D8A405A60DC2E787
:102CF00090239B01E3189BB22000934206D88023C7
:102D00008005B402800D20435B02C0182900FFF744
:102D10006DFFB0E702331A78002AD0D09042F9D183
:102D200059780029CBD000236B762800FFF7DFFB12
:102D3000A1E76868434258418000A8E7FED0000040
:102D4000FF03000010B50400FFF7ABFBA36A1818DF
:102D5000A06210BD70B504000C4B1D78002D0DD085
:102D60005A788A4201D00233F7E75C212000FFF74E
:102D7000E9FF29002000FFF7E5FF05E00029F9D170
:102D800003492000FFF792FE70BDC04600D100004D
:102D9000F7D0000070B50C00160022210500FFF7E7
:102DA000D1FFA619B44205D021782800FFF7D2FF41
:102DB0000134F7E728002221FFF7C4FF70BD37B5C3
:102DC00004000D007B21FFF7BDFF2988E26A6846F9
:102DD000FFF7B6F9009B002B24D022212000DD68EC
:102DE000FFF7B0FF2978002904D020000135FFF754
:102DF000B1FFF7E722212000FFF7A4FF3A212000CE
:102E0000FFF7A0FF2100009800F012F8E16A684681
:102E1000FFF796FA009B002B04D02C212000FFF72F
:102E200091FFD7E720007D21FFF78CFFA06A3EBD10
:102E30007F22F0B5037A8DB005000C001340082BFB
:102E400000D109E216D8042B00D1F1E104D8032BFC
:102E500000D1FDE1C84909E0052B00D1F4E1062BC2
:102E6000F8D10378C549002B00D1C5492000FFF7F0
:102E70001DFED5E10C2B37D014D80A2BEAD10668F9
:102E80004768002F08DA2D212000FFF75BFF320092
:102E90003B00002756429F4132003B002000FFF7D5
:102EA00011FEBDE1202B00D1BCE1402BD2D15B2132
:102EB0002000FFF747FF2988E26A06A8FFF740F9DC
:102EC0000698002800D1A7E12100FFF7B1FFE16AD1
:102ED00006A8FFF735FA069B002B00D19CE12C21B8
:102EE0002000FFF72FFFEBE7456807682B003A004B
:102EF0003800290005F06AFE0028ABD0002200232C
:102F00003800290005F062FE00280DD13A002B00A0
:102F10003800290005F0C8FF02000B003800290026
:102F200005F054FE002895D1002200233800290026
:102F300005F052FE002806D02D212000FFF702FFE9
:102F400080231B06ED1800228E4B3800290005F067
:102F500061FE00286BD00023082601930133FF3364
:102F60000293894B310006A80693FFF7D4FB0200B9
:102F70000B003800290005F04DFE002813D0834BCC
:102F8000310006A80693FFF7C6FB02000B003800CD
:102F9000290006F0AFFE029A070094460D00019B3F
:102FA00063441BB20193029B5B100293013ED8D293
:102FB000002200233800290005F022FE00283CD022
:102FC000734A744B3800290005F010FE0396002860
:102FD00033D0731C31D06D4B039906A80693FFF7CD
:102FE0009AFB00226C4B06F085FE3A002B0005F0A0
:102FF00007FE002812D0644B039906A80693FFF73A
:103000008AFB02000B003800290006F073FE0D0059
:10301000019B029A0700981A03B20193029B013E9A
:103020005B100293039B76B2013B0393D1E78023AD
:103030005B00029308260190BAE73800290005F0EA
:103040003DFE092306000593544B029004936B4602
:103050001B7D5BB20393059B013BDBB20593092EFD
:103060000AD90A21049805F02BFC0A2104903000AB
:1030700005F026FC0600EAE7029807F081FC020052
:103080000B003800290007F0A7F8060004980F008D
:1030900007F076FC02000B003000390006F02AFE33
:1030A0000F00060005F00AFE050007F069FC0200AB
:1030B0000B003000390007F08FF80B00020005F01C
:1030C000F3FE05F0FBFD049B4519AB420FD800252C
:1030D000029B01330293019BAB4208D0029B092B58
:1030E00005D90198013003B20193012302930A2606
:1030F0003100280005F06AFC00290CD1039B002B4D
:1031000009DD2800310005F0DBFB039B0500013BD6
:103110005BB20393ECE716260A2706ABF618029873
:10312000390005F053FC013E30313170029839000E
:1031300005F0C6FB0290031EF1D106AA16339B18B8
:103140009A1B31002000FFF7A0FC039B002B35D019
:103150001E000AAF013E76B2013F731C20D028004A
:103160000A2105F033FC3031397028000A2105F0BE
:10317000A7FB0500EEE7C0460FD1000014D1000008
:1031800019D10000D012634130CE0000E8CD00001C
:10319000F168E388B5F8E43E0000244000CA9A3B99
:1031A0006B461B7B1025D9432E224B1906A8C2540F
:1031B0000AAB4A4220005918FFF767FC019B002B1D
:1031C0002ED065212000FFF7BDFD6B469D88019B39
:1031D000002B05DA2D212000FFF7B4FD6D42ADB2C2
:1031E000162306AA9B181E000A272800390005F09E
:1031F000EDFB013E303131702800390005F060FBF5
:1032000085B2002DF1D11623310006AA9B189A1B16
:103210002000FFF73AFC03E05D212000FFF792FD5C
:10322000A06A03E001002000FFF7C9FD0DB0F0BD6A
:1032300005682A1E03D0280008F006FA02002900BB
:103240002000FFF7A7FDEBE70168CA880831F7E720
:103250000168CA880831DBE7026843681EE6C04699
:1032600070B50024B6B000900191100021000292C8
:103270000B9404F026FE282202A90CA807F05EFC9D
:1032800028220CA916A8009D019E07F057FC2822B1
:1032900016A920A807F052FC282220A92AA807F086
:1032A0004DFC20A83494FFF7EDF816A83596FFF7EB
:1032B000E9F8A54210D02AA92800FFF7B9FD0400BB
:1032C0002AA8FFF7DFF80CA8FFF7DCF802A8FFF741
:1032D000D9F8200036B070BD02492AA8FFF7E6FBF6
:1032E000349CEDE70FD1000070B50E0098B0154981
:1032F000050004F09CFD07AA0F928022D202124B17
:10330000109201220493002304AC5242A28614AA14
:103310002371069313700D49C833220012A8169327
:10332000FFF736FC220001003000FFF729FB2A00DE
:10333000210012A8FFF794FF2000FEF7B3FF28003A
:1033400018B070BD0ED10000040000208ACF00002C
:1033500000232F2806D90133392803D95E2803D941
:103360007A2804D81800704700234028FAD900238F
:103370005A2282425B41DBB2F4E770B50400FFF7EA
:10338000A4F82000FFF741FB27280BD0222809D002
:103390002000FFF73AFB0500FFF7DAFF002805D110
:1033A000033070BD2000FFF75FFCFAE7002329001F
:1033B00063762000FFF79BF82000FFF726FB05004F
:1033C000FFF7C6FF0028F1D16068434258418000F2
:1033D000E7E7F0B5DBB285B004000F0001930525E7
:1033E000002B0CD000234376FFF71EFB051E06D1F1
:1033F0007D212000FFF789FB002845D0002528000B
:1034000005B0F0BDA268636839009B181D72626840
:10341000E369083202A8FFF784FB029D002D45D125
:103420002000FFF74FF9E2690600390002A8FEF715
:1034300097FF029D002D01D10435E0E780222B7A11
:103440005242134308362B72EE60019B2900013B68
:103450000022200000F034F8051ED0D12000FFF734
:10346000E3FA051ECBD17D212000FFF74EFB00289B
:10347000C4D12C212000FFF748FB002814D02000E5
:10348000FFF7D2FA051EBAD12000FFF776FF051E1E
:10349000B5D12000FFF7C8FA051EB0D13A212000AF
:1034A000FFF733FB0028ADD10325A8E7E169280029
:1034B000FEF70CFF7F222B7A93432B72C5E70000A7
:1034C000F0B585B004000E001F1CFFF7ADFA051E15
:1034D00001906AD12000FFF798FA662800D188E0B1
:1034E0001AD8272804D05B281FD0222800D08AE0D1
:1034F0002000FEF7EAFF2000FFF7B6FB051E54D1BF
:103500002000FFF7DFF87F22337A306093431A0000
:1035100005231343337248E074285CD07B2847D0DE
:103520006E2800D06FE051495FE07F22337AFFB20E
:1035300093431A0040231343337201235B423380C9
:1035400073800525002F30D06B461B7920006376F1
:10355000FFF76AFA051E28D15D212000FFF7D5FA92
:10356000002800D07BE03100E26902A8FEF7F8FEF7
:103570000299002900D176E07B1E00222000FFF78F
:103580009FFF051E11D12000FFF74EFA051E0CD13A
:103590005D212000FFF7B9FA002860D12C2120001E
:1035A000FFF7B3FA0028DED10325280005B0F0BDEF
:1035B0007F22337A310093431A002023134333725E
:1035C00001235B423380738000223B1C2000FFF705
:1035D00000FF0500E9E77F22337A254993431A006B
:1035E000062313433372012333702000FFF737FAA9
:1035F000EFE77F22337A357093431A000623134393
:1036000033721C49F1E72000FFF7FFF9002520275E
:10361000EBB22F280CD939280CD80135402D20D0F9
:10362000002363766319D8772000FFF7EEF9EFE700
:103630002B28F2D002002D3AD2B2012AEDD9020095
:10364000BA43D2B2452AE8D000222000E318013361
:10365000DA7720303100FFF76BF80028A4D000257E
:10366000A3E73F23F0E704259FE7C0460FD1000002
:1036700014D1000019D10000F0B50C00B5B00190D4
:103680007B212000170004F0AEFCA368210002009B
:1036900004A804F0ADFC8023DB021693012300256F
:1036A0000AAC5B42A3861AAB1D70049E069B4C4974
:1036B0000DA82571A560F318E0620A910293FEF748
:1036C000AAFD25710A9DA068002805D0036829007D
:1036D000A360FEF77BFDF6E71AAB1870029B1CADEA
:1036E0001D901E901C940022287318A921932096E7
:1036F0000A23687628002394FFF7E2FE6868002812
:1037000003D01C9B1968FEF761FD390007A804F07F
:10371000CEFB0AAF07A91DA81C9704F0C8FB07A899
:1037200004F036FB1D9B1C9D02932B0038331C1E9E
:103730002BD0202208331B7813401C1E25D00024D8
:10374000029BA34221D01F9B298F2A0007A8039325
:10375000FEF7F6FC079C002C17D0E668301E01D05F
:1037600007F072FF039B83420AD10023039A9A4217
:103770000BD0029AD15CF25C914201D10133F5E7A2
:10378000290007A8FEF7DCFDE4E7164901981C9D17
:1037900004F04DFB002C06D07F22237A1340042B2B
:1037A00009D0052B19D02900019A2000079408950B
:1037B000FFF756FD05E021680029F4D0019804F0D8
:1037C00080FB1DA804F0E4FA3800FEF76BFD04A8A6
:1037D00004F0DEFA019835B0F0BD21680831EBE75E
:1037E000040000200ED10000F0B54B4BA5B01C68C2
:1037F000056804F091FC494A49491368C31A8B4291
:1038000033D9106001A800F039FD2A00454B01A909
:103810000FA801F0E9FC22000123202107A807F0EE
:10382000D3FE414C4149200004F0F0F907A92000E3
:1038300004F008FA07A90FA801F01EFE0FA801F076
:1038400027FE05003A49200004F0E0F90A22290089
:10385000200004F048FA0FA8C82D08D001F0E8FCB9
:10386000344B21A80F9304F093FA25B0F0BD01F07A
:1038700010FF0500431C07D10FA801F0D9FC2E4909
:10388000200004F0DFF9EBE72C49200004F0BEF93A
:103890000A222900200004F003FA2949200004F03C
:1038A000D1F9284E2900300001F068FF002804D12A
:1038B0000FA801F0BDFC2449E2E7002D0EDD6B46A8
:1038C000DF1C012239000FA804F03CFA002805D0C3
:1038D0003978300001F074FF013DEEE7300001F06F
:1038E00020FF0FA801F0A4FC002D0ADD17492000DD
:1038F00004F08CF929000A22200004F0D1F91449BF
:10390000BEE71449200004F09DF9200002F0A6FD56
:10391000300001F06DFFA3E714000020F00200204A
:103920006F17000088130000B00800208DCF000042
:10393000A4CF000080D20000B9CF000002D0000068
:1039400027D00000840300202ED0000079D0000092
:103950009DD00000C1D00000F0B58FB0050008A8D0
:103960000F00019200F08AFC3B4E3C4A316808A8E7
:1039700000F096FA3A4C00284AD03A49200004F068
:1039800045F93168200004F041F93749200004F07E
:103990003DF90A223149200004F0A1F92900200054
:1039A00004F046F9314902A804F041FA290002A8BE
:1039B00004F0E4FA040005A8FEF7B8FD05A920000C
:1039C00004F0DCFA2A4904F0E6FA010008A804F041
:1039D00016F905A804F0DCF902A804F0D9F908A842
:1039E00004F01EF908A800F0DFFB0028FAD008A8B0
:1039F00000F0DAFB002821D008A905A804F0B4F9EA
:103A000005A9380004F089FA05A804F0C1F9EEE729
:103A10001849200004F0FAF83168200004F0F6F8A4
:103A20001149200004F0F2F80A220C49200004F0A9
:103A300056F92900200004F0FBF8D3E7390005A867
:103A400004F035FA05A8FEF7CBFD019B186005A828
:103A500004F09EF90FB0F0BD0800002088130000AC
:103A6000B008002036CF000051CF000053CF000037
:103A700058CF000063CF000030B5504C91B021000A
:103A800001A804F0D4F90023210004A8009304F055
:103A9000CEF94B4B0DA8196804F0C9F96A4601A983
:103AA0000DA8FFF759FF0DA804F072F9CA23009A78
:103AB0005B009A4213D1434A136801331360022B0F
:103AC0000ADD414B0DA8196804F0B1F90DA8FFF704
:103AD0008BFE0DA804F05CF93C4804F053FB009BFE
:103AE000C83B642B61D801A907A804F0E0F9384C61
:103AF0000AA8210004F09BF90AAA07A90DA8FFF75C
:103B0000BBFD344D0DA9280004F092F80DA804F077
:103B10003FF90AA804F03CF907A804F039F901A913
:103B200007A804F0C4F921000AA804F080F90AAA41
:103B300007A90DA8FFF7A0FD0DA804F0A0FAFEF755
:103B400097FD0DA804F024F90AA804F021F907A8AC
:103B500004F01EF901A907A804F0A9F91E490AA852
:103B600004F065F90AAA07A90DA8FFF785FD0DA8BD
:103B700004F085FA04000DA804F00AF90AA804F07C
:103B800007F907A804F004F90A222100280004F02C
:103B9000AAF8124D280000F015F9280000F016F9D7
:103BA000200004F0EFFAFEF72FFD04A804F0F0F86F
:103BB00001A804F0EDF811B030BDC0460ED10000F0
:103BC00010000020EC020020080000201027000058
:103BD0001FD10000B008002027D10000F80200200B
:103BE000F0B58FB0050008A80F000092019300F017
:103BF00045FB424E424A316808A800F051F9414C59
:103C0000002856D04049200004F000F83168200018
:103C100003F0FCFF3D49200003F0F8FF0A22384979
:103C2000200004F05CF82900200004F001F8384975
:103C300002A804F0FCF802A905A804F038F929004C
:103C400005A804F09BF9334904F0A5F9324904F0C2
:103C5000A2F9324904F09FF9B96804F0AAF9304C8E
:103C6000210004F098F9210004F095F9390004F0DE
:103C700085F9010008A803F0C2FF05A804F088F840
:103C800002A804F085F808A800F08EFA0028FAD0FF
:103C900008A800F089FA002821D008A905A804F096
:103CA00063F805A9009804F038F905A804F070F845
:103CB000EEE71C49200003F0A9FF3168200003F063
:103CC000A5FF1249200003F0A1FF0A220C492000A1
:103CD00004F005F82900200003F0AAFFD3E70099BB
:103CE00005A804F0E4F805A8FEF77AFC019B18602B
:103CF00005A804F04DF80FB0F0BDC0460800002044
:103D000088130000B008002036CF000051CF00001B
:103D100078CE00007ECE00008ACE0000ABCE000040
:103D200087CE0000BCCE0000962110B5204C8EB08E
:103D30008901200002F080FA200002F0CDFB00286B
:103D4000FAD01C4B01211868C0B204F069FCFEF7E0
:103D50005BFC194902A804F06AF800230193174B91
:103D60000BA8196804F063F805A8FEF7DFFB05A9A6
:103D700008A8FFF7B9FA01AB02AA08A90BA8FFF738
:103D80002FFF08A804F004F805A804F001F80BA818
:103D900003F0FEFF0A49200003F038FF02A92000CB
:103DA00003F046FF02A803F0F3FF0EB010BDC046BB
:103DB000B0080020180000200ED100000C000020E8
:103DC0002DD1000010B501F021F810BD10B500F0A4
:103DD000D5FF10BD10B50C0001F076F806220100E9
:103DE000200006F0ABFE200010BD10B501F042F837
:103DF00010BD10B50800110001F01CF910BD43689A
:103E000010B5002B00D0984710BDF8B5050008008C
:103E10000E00170007F018FC0400380007F014FC2F
:103E2000E1B2C3B23A00300000F0ACFF0424431CFE
:103E300014D004F071F90024060004F06DF92B6829
:103E4000801B98420AD22800FFF7D9FF642004F0B3
:103E500099F901F00FF804000228EED92000F8BD0E
:103E60000022024B024906C37047C046F8020020F8
:103E700050C300000020704713B56B460268D9712B
:103E80000733546819000122A04716BD0175704719
:103E90007047007CFF38431E9841C0B27047000055
:103EA00070B50E0086B0040002A8150003F0C4FD32
:103EB00002AA31000848FFF79CFF00280AD0074AF1
:103EC00023680492039ADB690192059204A92A00EF
:103ED0002000984706B070BDF802002020D80000EE
:103EE00070B5037C04000D001600FF2B02D00368A0
:103EF0009B6A984700F072FC02002074FF281ED0D5
:103F000068680023310000F09FFA04F005F905000D
:103F100023682000DB6A9847002809D104F0FCF8E8
:103F20000A4B401B984203D8012004F02BF9EFE71D
:103F300023682000DB6A9847431E984170BD0449FE
:103F4000044803F07FFE0020F8E7C0460F2700007A
:103F5000AFD10000B008002070B5037C04000D0054
:103F60001600FF2B02D003689B6A984700F036FCCE
:103F700002002074FF281ED068680223310000F080
:103F800063FA04F0C9F8050023682000DB6A98474B
:103F9000002809D104F0C0F80A4B401B984203D80E
:103FA000012004F0EFF8EFE723682000DB6A984770
:103FB000431E984170BD0449044803F043FE0020AD
:103FC000F8E7C0460F270000AFD10000B00800207E
:103FD00070B5037C04000D001600FF2B02D00368AF
:103FE0009B6A984700F0FAFB02002074FF281ED05D
:103FF00068680423310000F027FA04F08DF805000A
:1040000023682000DB6A9847002809D104F084F86F
:104010000A4B401B984203D8012004F0B3F8EFE7A5
:1040200023682000DB6A9847431E984170BD04490D
:10403000044803F007FE0020F8E7C0460F27000001
:10404000AFD10000B0080020F7B5037C04000E00DB
:104050001700FF2B02D003689B6A984700F0BEFB55
:1040600005002074FF2825D0300007F0EDFA022368
:10407000C1B2019300953B000022300000F026FA07
:1040800004F04AF8050023682000DB6A98470028FE
:1040900009D104F041F80A4B401B984203D8012093
:1040A00004F070F8EFE723682000DB6A9847431EAE
:1040B0009841FEBD0349044803F0C4FD0020F8E721
:1040C0000F270000AFD10000B0080020F7B5037C37
:1040D00004000E001700FF2B02D003689B6A98476C
:1040E00000F07CFB05002074FF2825D0300007F08D
:1040F000ABFA0423C1B2019300953B0000223000CB
:1041000000F0E4F904F008F8050023682000DB6AF9
:104110009847002809D103F0FFFF0A4B401B984243
:1041200003D8012004F02EF8EFE723682000DB6AB3
:104130009847431E9841FEBD0349044803F082FDA1
:104140000020F8E70F270000AFD10000B0080020E2
:10415000F8B50500007C0E001400FF2804D10123EF
:1041600000246B602000F8BD002AF8D092B200F065
:10417000A7FA002815D12B7D002B03D1287C00F055
:10418000F9F9ECE72B6822005F6C3100012328006D
:10419000B847041EF2D0287C00F0D4FA0028DED004
:1041A000E0E70400F7E7000010B5017C0020FF29DC
:1041B00002D0024800F0DEF810BDC0460003002027
:1041C000036837B51B6904009847002809D06B467F
:1041D000DD1D217C01232A00034800F007F928781F
:1041E0003EBD01204042FBE70003002010B50C005B
:1041F0001300017C2200024800F0F8F810BDC04610
:104200000003002010B5017C014800F0DFF810BD6C
:104210000003002007B500236A4601931380007C49
:1042200001A900F067FD6B466A461B7850781B02B7
:10423000C01880B20EBD13B500236A460400019376
:104240001380087C01A900F055FD01A9200003F0AE
:1042500009FC200016BDF8B505000E001700002B64
:104260000AD00524BAB2287C310000F029FA0028CF
:1042700003D1013C002CF5D10020F8BD00234360A0
:10428000FA239B008360044B08330360FF2303740D
:10429000FE3B03757047C046C4D1000010B5037CD7
:1042A0000020FF2B02D0180000F098F910BD00008C
:1042B00070B50400007CFF2814D000F05BF93225B3
:1042C0002000FFF7EBFF002806D0013D002D03D0B2
:1042D000642003F057FFF3E7217C034800F030F837
:1042E000FF23237470BDC0460003002070B5037C1B
:1042F00004000025FF2B05D003681B699847A842DE
:1043000002D00125280070BD2000FFF7C7FF0A2852
:10431000F7D8054BC340DB07F3D5217C034800F0F9
:104320000FF8FF232374EDE7EF04000000030020E3
:1043300010B504007822002106F01CFC200010BDFE
:1043400010B50C244C4304192068002805D006F051
:10435000D9FB002363602360A36010BD70B5050026
:104360000024210028000134FFF7EAFF0A2CF8D1CD
:10437000280070BDF7B50C244C430419A368050050
:104380000E00002B1AD12768002F05D10E4806F029
:10439000AFFBA760606020606B469F1D0A4BF0B2C8
:1043A0003A0021683B8000F04FF9002806D02368CE
:1043B0003A8863600C237343EB189A600C235E43C6
:1043C000AD19A868FEBDC046DC05000070B504004C
:1043D0000D00FFF7CFFF002805D00C2169436418BA
:1043E0006368187870BD01204042FBE7F8B506000D
:1043F0000C0017001D00FFF7BDFF002811D08542FB
:1044000000DD05000C235C4334192A006168380084
:1044100006F094FB280063685B196360A3685B1B6C
:10442000A360F8BD10B5054C2000FFF781FF044ADA
:104430000449200004F032FA10BDC04600030020F9
:10444000000000205D4300007FB50E0069468C1C13
:1044500023701D4BCD1C1B7801902A70002B01D1BD
:1044600000F00CFA002000F0E3F900F07DFA0421DE
:104470002D2000F02BFC002201A8042100F0E8FA16
:104480003000002100F010FC28000022012100F083
:10449000DFFA01222000110000F0DAFA00F08CFAB5
:1044A000002000F0C5F900F05FFA0E220F23002172
:1044B0006A446B44117019702D20013100F0F0FA3C
:1044C00000F07AFA7FBDC04679030020F0B51C00E9
:1044D000274B85B01B7806000D000192002B01D1FF
:1044E00000F0CCF9002000F0A3F900F03DFA05211E
:1044F0002D2000F0EBFB30000022290000F0A8FA8C
:104500000022042101A800F0A3FA0021200000F0FD
:10451000CBFB002201210AA800F09AFA01220BAE7F
:104520001100300000F094FA03272C0011343C40B5
:104530000135002C02D000F06BFAF6E700F03CFAEF
:104540003078043843425841C0B200F071F900F0AD
:104550000BFA0E220F236A446B4401212D201470A4
:104560001C7000F09DFA00F027FA05B0F0BDC046BF
:10457000790300201FB56B46DC1D174B20701B789C
:10458000002B01D100F07AF9002000F051F900F081
:10459000EBF901212E2000F099FB012220001100EF
:1045A00000F056FA00F034FA00F032FA00F004FAA3
:1045B000002000F03DF900F0D7F90E220F23002172
:1045C0006A446B44117019702E20013100F068FAB2
:1045D00000F0F2F91FBDC046790300201FB56B46FD
:1045E000DC1D184B20701B78002B01D100F046F920
:1045F000002000F01DF900F0B7F901212F2000F094
:1046000065FB01222000110000F022FA00F000FA00
:1046100000F0FEF900F0D0F9002000F009F90E24B6
:1046200000F0A2F90F2300226C446B441A70227030
:10463000012122002F2000F033FA00F0BDF920788C
:1046400004B010BD7903002073B56B46DD1D0E006C
:104650001400287000F00AF9002801D1208076BDEE
:10466000164B1B78002B01D100F008F9002000F058
:10467000DFF800F079F90221452000F027FB002245
:104680000121280000F0FBFA01220221200000F0A5
:10469000F6FA00F0BDF900F08FF9002000F0C8F83C
:1046A00000F062F922003100452000F0B6FA00F077
:1046B00083F92088431E9841C0B2D0E779030020D7
:1046C0007FB56B46DC1D1E4B0E001B78150020705D
:1046D000002B01D100F0D2F8002000F0A9F800F082
:1046E00043F90221442000F0F1FA002201212000C8
:1046F00000F0C5FA30000122290000F0C0FA0326BC
:104700002C00093434400135002C02D000F080F92F
:10471000F6E700F051F90E25200000F089F800F0CE
:1047200023F90D226D446A442900442014702C8022
:1047300000F0EAF900F040F9288804B070BDC046E6
:1047400079030020F0B50E2585B00F2700246B46B5
:1047500001266D446F44D8712C703C701E4B1B7841
:10476000002B01D100F08AF8002000F061F800F081
:10477000FBF831002A2000F0A9FA6B463200310024
:10478000D81D00F065F900F043F900F041F900F0A0
:1047900013F9002000F04CF800F0E6F83B002A0086
:1047A00031002A2000F07CF900F006F92B78002B6C
:1047B0000FD101346420A4B203F0E4FC2B78002B69
:1047C00001D1182CCAD9193C601E8441E0B205B051
:1047D000F0BD0024F2E7C04679030020134B13B567
:1047E0001B78002B01D100F049F8002000F020F8E0
:1047F00000F0BAF800213F2000F068FA00F0DCF881
:10480000002000F015F800F0AFF86B469C1DFF2368
:1048100023706B46002207331A70012122003F20CB
:1048200000F03EF900F0C8F8207816BD79030020AA
:1048300070B5050003F070FC0400094B187803F014
:1048400067FF00280BD0002DF7D003F065FC054B67
:10485000001B9842F1D80448FFF7D1FAEDE770BD8C
:104860001C0000200F270000F802002010B51E20B9
:1048700003F04EFF431E984110BD0000F8B51C2305
:10488000234E244F3370244C07333B70BD332370C9
:1048900001F066F9214DDF2804D801232B7023781D
:1048A000DB4323703078012103F0BAFE3878002111
:1048B00003F0B6FE2078012103F0B2FE01211E2094
:1048C00003F0AEFE01211E2003F0F6FE3078012138
:1048D00003F0F2FE2978207803F0EEFE0A2003F0C0
:1048E00051FC297801252078694003F0E5FE0C4849
:1048F00003F048FC00211E2003F0DEFE00211E20F4
:1049000003F08EFE074801F09BF8074B1D70F8BDC1
:104910001E0000201C0000201D0000207803002045
:10492000EE020000D00300207903002010B5094BEF
:104930001978094B187803F0BFFE084B002118784E
:1049400003F06EFE064800F0A4FF0022054B1A702B
:1049500010BDC046780300201D0000201E0000206E
:10496000D00300207903002013B500246B466A466B
:104970001C7101235371019A0B490C4801F088F80E
:104980000B4B2100187803F097FE03F0C5FB0400E1
:10499000084B187803F0BCFE012804D003F0BCFBE0
:1049A000001B0428F4D913BD00127A00D0030020A4
:1049B0001E0000201C00002010B5044B01211878B7
:1049C00003F07AFE024800F0E3FF10BD1E00002055
:1049D000D003002007B56B46D871D9790248C9B217
:1049E00000F05FFF0EBDC046D003002010B50400EC
:1049F000FF20FFF7EFFF207010BD70B50C00050021
:104A00000800FFF7F3FF2078401B4342584170BD78
:104A100013B56B46DC1D002320002370FFF7E6FF73
:104A2000207816BD70B50500084CFFF7F1FFEF28A0
:104A300008D0013C002C01D0A842F6D1401B4342D3
:104A4000584170BD01204042FBE7C046E903000029
:104A5000F8B5050008000E0017002C00FFF7BAFF9C
:104A6000631B9E4204DD2078FFF7B4FF0134F7E7B3
:104A7000012F02D1EE20FFF7ADFFF8BD10B5040005
:104A8000000AFFF7A7FFE0B2FFF7A4FF10BD10B5C3
:104A90000400FF20FFF79EFF002C00D0207010BD07
:104AA000F0B585B01F0002ABDC1D00230500E0203F
:104AB000019116002370FFF7B5FF002802D10020F6
:104AC00005B0F0BD2000FFF791FF80222378154349
:104AD000AB42F4D12000FFF789FF2378019A93427B
:104AE000EDD13800FFF7D3FF35003A78AB1B9A427F
:104AF00004DD2800FFF77AFF0135F6E72100EE20FC
:104B0000FFF77BFF0120DBE7F7B56B46DC1D0023D9
:104B10000500E0200E0017002370FFF783FF002838
:104B200001D10020FEBD2000FFF760FF8022237826
:104B30001543AB42F5D1FFF76BFF00280DD03800CD
:104B4000FFF7A5FF35003A78AB1B9A4205DDFF2041
:104B5000FFF740FF28700135F5E72100EE20FFF751
:104B60004CFF0120DEE7F0B587B004ABDE1D00236B
:104B70000500E020039114003370FFF753FF002875
:104B800002D1002007B0F0BD3000FFF72FFF8022D8
:104B900033781543AB42F4D1FFF73AFF0190002878
:104BA000EFD005234343E3180293029B9C421AD0A3
:104BB000FF20FFF70FFF002720702378BB4210DD96
:104BC000A37865781B022B43E578FF202D042B4347
:104BD00025792D061D43FFF7FDFEED1928700137DD
:104BE000EBE70534E1E7019B039A9342C9D1310019
:104BF000EE20FFF702FF0120C4E770B50500FF209B
:104C0000FFF7E8FE0400FF20FFF7E4FE2402204344
:104C100080B2002D00D0288070BDF0B5002485B092
:104C200002AB0700DD1DE020019116002C70FFF79C
:104C3000F9FEA04202D1002005B0F0BD2800FFF728
:104C4000D5FE80222B781743BB42F4D1FFF7E0FE5C
:104C500000280ED03000FFF7D0FF3388A34208D9D8
:104C6000019BFF201F19FFF7B5FE01343870A4B275
:104C7000F3E72900EE20FFF7C0FE0120DCE770B566
:104C800004000D0008001600FFF7F8FE6519AC429D
:104C900004D02078FFF79EFE0134F8E7012E02D100
:104CA000EE20FFF797FE70BD70B5040002200D00E6
:104CB000FFF790FE200AFFF78DFEE0B2FFF78AFEB5
:104CC000012D02D1EE20FFF785FE70BD70B5040006
:104CD000E0200D00FFF77EFE7F202040FFF77AFEE8
:104CE0002800FFF777FE002D02D1EE20FFF772FEBD
:104CF00070BD000070B586B06B46DE1D0C0015005F
:104D000030700622002103A805F034FF0D23220A8B
:104D10006B441C705A70220C240E9A70DC701223A3
:104D20006B441D802D0C5D80134B1B78002B01D133
:104D3000FFF7A4FD0020FFF77BFDFFF715FE012123
:104D40003A20FFF7C3FF012230001100FFF780FE79
:104D5000FFF75EFEFFF75CFEFFF72EFE0020FFF779
:104D600067FDFFF701FE03AA02213A20FFF7FBFED1
:104D7000FFF722FE06B070BD7903002010B5FFF7E3
:104D8000D5FD10BDF7B51D001F4B07001B780C00AB
:104D90001600002B01D1FFF771FD0020FFF748FD41
:104DA000FFF7E2FD02211120FFF790FF2100002212
:104DB0003800FFF74DFE300001222900FFF748FEC2
:104DC0000326063464192500354003D0FFF720FE82
:104DD0000134F8E7FFF7F0FD2800FFF729FDFFF7A2
:104DE000C3FD6B469C1D2200073301211120257055
:104DF0001D70FFF755FE002801D1FF232370FFF738
:104E0000DBFD00202056FEBD79030020184B13B5B2
:104E10001B78002B01D1FFF731FD0020FFF708FDC3
:104E2000FFF7A2FD30200121FFF750FF6B46012262
:104E3000581DFF2311000370FFF70AFEFFF7E8FD7E
:104E4000FFF7E6FDFFF7B8FD0020FFF7F1FCFFF7E5
:104E50008BFD6B4600219A1D0733117019703020AD
:104E60000131FFF71DFE0400FFF7A6FD60B216BD7D
:104E700079030020134B13B51B78002B01D1FFF7EA
:104E8000FDFC0020FFF7D4FCFFF76EFD0021202081
:104E9000FFF71CFFFFF790FD0020FFF7C9FCFFF7AD
:104EA00063FD6B469C1DFF2323706B460022073376
:104EB0001A70012122002020FFF7F2FDFFF77CFD90
:104EC000207816BD79030020184B13B51B78002BF2
:104ED00001D1FFF7D3FC0020FFF7AAFCFFF744FD48
:104EE00022200121FFF7F2FE6B460122981DFF23CD
:104EF00011000370FFF7ACFDFFF78AFDFFF788FD97
:104F0000FFF75AFD0020FFF793FCFFF72DFD6B46DE
:104F10000022074C07331A70012122002220FFF7DC
:104F2000BFFDFFF749FD200016BDC04679030020F4
:104F30007A030020204B73B51B780400002B01D1AD
:104F4000FFF79CFC0020FFF773FCFFF70DFD01212C
:104F50003420FFF7BBFE200006F076FB0122C1B231
:104F60002000FFF775FD200006F06EFB0326441DB0
:104F70002500354003D0FFF74BFD0134F8E7FFF77C
:104F80001BFD2800FFF754FCFFF7EEFC6B469E1D4F
:104F90009D7132000733012134201D70FFF780FD21
:104FA000C4B2FFF709FD002C04D03478013C604204
:104FB0004441E4B2200076BD79030020FF2130B5E2
:104FC00087B00B00050000910A0004A802F03CFD28
:104FD000174B1B78002B01D1FFF750FC0020FFF787
:104FE00027FCFFF7C1FC00213520FFF76FFEFFF71C
:104FF000E3FC0020FFF71CFCFFF7B6FC0B230022AC
:105000006B441A70012103AA3520FFF749FD041EE5
:1050100008D003A9280002F031FD059B6C68E41A52
:10502000631E9C41FFF7C8FC200007B030BDC0469E
:105030007903002010B50C00FFF77CFF030000206F
:10504000834202D02000FFF7B9FF10BD10B5006900
:1050500003689B69984710BD10B500690368DB6859
:10506000984710BD1FB5006949680368044C019159
:105070000391DB69029402A9984704B010BDC046B1
:1050800020D8000010B5006903681B6A984710BD5E
:1050900010B500690368DB6A984710BD0069431EBC
:1050A0009841C0B27047006C7047016470470300BC
:1050B00010B538331B780400002B06D12069036833
:1050C0005B699847002808DA10BD03681B69984798
:1050D0000028F3D101204042F6E7E21CD17F0B000B
:1050E000083B022BF0D8A36A002B02DDE36A0133F0
:1050F000E3620A29E8D1E36B013BE363002BE3D1D0
:105100000933D377E0E710B50400006903685B6AF0
:105110009847E31CDB7F083B022B07D8A36A002BD0
:1051200004DD002802DBE36A1B18E36210BDF7B55B
:10513000C51CEB7F0400092B0ED1FF2720690368F3
:105140001B699847002807D0206903685B69984766
:10515000C6B20A2E18D1EE77EB7F0A2B04D1E36B8F
:10516000002B01D10933EB77EB7F0020092B0AD00C
:10517000206903681B699847EB7F0A2B03D1E36B17
:10518000984200DD1800FEBD0D2ED7D0384005F046
:1051900094FC0028D2D00021E36B01A810220180EA
:1051A00006701E0106F0DAFA3618E663C6E700005C
:1051B0000023C21CD377012252428262074A436213
:1051C0001268C3620263064A126842630200383200
:1051D0001370C363034B03647047C0462400002070
:1051E000280000203075000070B51D0000234360CA
:1051F000FA2304009B0083600B4B016108330360BA
:105200004261183002F018FC2200012320004432D1
:105210002584064913705370483002F008FE2000C0
:10522000FFF7C6FF200070BD78D200000ED100004D
:1052300010B50400006903689B6A98472000FFF7D7
:10524000B7FF10BD70B504001500006902F0DEFC68
:105250000449206902F0DAFC2900206902F0F2FC1E
:1052600070BDC04624CF000070B504000D00006979
:10527000110002F0CBFC2049206902F0C7FC290094
:10528000206902F0C3FC1D49206902F0DBFC230009
:1052900045331B78002B1FD06369002B16D01849AB
:1052A000206902F0B3FC6169206902F0AFFC238C35
:1052B000502B08D01349206902F0A8FC218C0A2247
:1052C000206902F00CFD206902F0AAFC0E4B0F4988
:1052D0001A682000FFF7B6FF230044331B78002B29
:1052E00004D00B4A0B492000FFF7ACFF0123033425
:1052F0000020E37770BDC04644D2000046D20000D3
:1053000050D2000051CF00002000002057D20000F2
:1053100062D2000068D2000070B504001500006978
:1053200002F074FC0449206902F070FC29000A2292
:10533000206902F0D8FC70BD24CF000010B5040035
:10534000006902F06DFC02230334E37710BD70B5F1
:10535000C31CDB7F04000D001600012B01D8FFF7F2
:10536000EDFF20693200036829005B68984770BD33
:1053700070B5C31CDB7F04000D00012B01D8FFF7C3
:10538000DDFF2069290003681B68984770BD10B5D0
:105390000400206903681B699847002804D020692D
:1053A00003685B699847F4E710BD0000F0B585B06D
:1053B0000192C51C1F00EB7F0400083B0E00022B6E
:1053C00004D8FFF7E4FF2000FFF7F2FEED7F012D88
:1053D00047D8230044331B78002B0CD02069616927
:1053E0000368228C002916D12049DB690291E1690A
:1053F000039102A910E020690368DB6A984700283E
:10540000ECD03100019A2000FFF72EFF061E09D0D4
:10541000300005B0F0BD1B6A98470028F1DC01267A
:105420007642F5E7002F04D03A0011492000FFF73B
:1054300009FF0A9B002B16DD1A000E492000FFF71A
:105440006BFF0B9B002B0ED001252000FFF776FF92
:10545000002DDDD023680A9A5B680B9920009847DD
:10546000D6E70226DCE7002DD2D1EEE720D80000F7
:1054700020D200002DD2000007B5012200235242A5
:1054800000920193014AFFF791FF0EBD73D2000015
:10549000F7B5C61CF37F0400012B49D90025002372
:1054A00063620233F37702F037FE2B4F01900A2D2F
:1054B00040D002F031FE019BC01A236C98423FD2CB
:1054C000236820001B699847002827D02368200004
:1054D0005B6998470500431CEBD0F37F022B05D096
:1054E000032B0FD002F018FE0190E0E73B782A2B47
:1054F00001D0834219D17B780137002BF2D10333DD
:10550000F377EFE70200303A092A01D90423F7E7DD
:105510000A23616A4B439B186362E3E7FA20800029
:1055200002F030FEC3E70A2D14D104204042FEBD34
:105530000220FBE7636AC72B02DC652B00D0002545
:10554000F37F042BEFD1606AC72801DC6528A6D160
:105550000A2DECD00320E9E73CD2000070B504002E
:105560000368FF255B699847E31CD97F0A00083A66
:10557000022A01D8284070BDC2B22840052930D087
:10558000072938D0042951D1256B297891420BD1B4
:10559000691C21636978002903D10525DD77A162A3
:1055A000E1620A2AE7D135E0616B0E7896420BD1B1
:1055B0004D1C656349780029F3D12100012538315C
:1055C0000D700621D977ECE71A4E3668B542F8D14E
:1055D000194D2D68A942F4D10D2AF2D1063ADA7795
:1055E000C9E70500303D092DEBD80A21A66A7143B1
:1055F0004919A162D5E70A2ABDD1220038321278B2
:10560000002A10D00922DA770022E263DA7F083A12
:10561000022AB0D90422DA77064B1B682363064BB3
:105620001B686363A7E70822DA77EFE70A2AA2D1AB
:10563000ECE7C0462400002028000020F8B5040054
:1056400002F06AFDFA270500BF00E61CF37F083B65
:10565000022B0FD902F060FD236C401B984209D247
:10566000236820001B69984700280BD1380002F0FE
:1056700089FDEAE7F37F0020083B022B01D90320D4
:105680004042F8BD2000FFF769FF02F045FD05002C
:10569000DBE710B5C31CDB7F0400083B022B01D9FC
:1056A000FFF7CCFFA06A10BD70B5C31CDB7F040000
:1056B000083B022B01D9002070BDFFF7EAFF431C15
:1056C000F9D02000E56AFFF7E4FFEB17C20F85422F
:1056D0005341D8B2F0E710B5FFF7E6FF10BD10B5A3
:1056E000FFF7E2FF10BD704710B5040002F0C2FDE5
:1056F000200010BD10B5044B04480833044A054986
:10570000036003F0CBF810BDF0D20000800300204E
:1057100000000020E756000010B503681B6898479A
:1057200010BD70B50400A56AA168280003F04EF909
:10573000002905D02368FF219B6820009847F2E7E5
:10574000A369ED1A256270BD70474069704700007B
:1057500010B5040000F064F8074B6268083323605A
:10576000E36820009B1A5B086361D318A3610023E0
:1057700023626362A36210BD00D3000070B5040011
:105780006369080000268B4214D3A568290003F042
:1057900097F8802101304543A369074A2562666274
:1057A000A362536801368B435360A268216AA069E3
:1057B000024B9847300070BD004000413D00002082
:1057C00010B5436AC21801331177042B02D043622B
:1057D000012010BD0023C2694362836A1A60836A94
:1057E00004338362014B9847F2E7C0462D00002046
:1057F00010B572B6024C8368026A81694068A0479E
:105800006900002010B50248FFF7A2FF10BDC04696
:1058100084030020C368426800699B1A181A704705
:105820000D4B0E4A03600E4B0E49436093685B03B9
:105830005B0F9B005B580C498360926892B25A439D
:105840000A4B1B685B065B0F9B005B58D31AC36057
:10585000002303617047C0462CD300000040004184
:105860000020000068D3000048D300000040800002
:1058700070B506000C008D18AC4207D03368217853
:105880009B683000984720700134F5E770BD704781
:10589000704710B50400406800F0E8FA0023237652
:1058A00010BD10B5406800F006FB10BDF8B505004E
:1058B00040680C0000F0FAFA2B68E7B2260A9B68F1
:1058C000012810D139002800FF2798472B68BC43D6
:1058D00004439B68310028009847030220003840A9
:1058E000184380B2F8BD310028009847FF262B6886
:1058F0000002344004439B68390028009847B443B1
:105900002043EEE710B5040002F0B4FC200010BD07
:1059100010B54B1C0BD0102909D0EFF3108472B6D0
:10592000102905DD02234376002C00D162B610BD9C
:105930000123427E1A43427618224A4304498918B9
:1059400016228A569340C2691343C361ECE7C046EE
:10595000C8D300004B1C17D0102915D0437E9B07DD
:1059600012D4EFF3108272B618234B430749C918BB
:105970000123897D49B28B40C1699943C16100D13E
:105980004176002A00D162B67047C046C8D30000F5
:10599000437E002B05D09A0704D5837E002B00D0D0
:1059A00062B67047DB07FCD5C369024A9BB2D3607D
:1059B000F7E7C04600180040037E002B04D1437671
:1059C0008376C36101330376704700007FB50369B6
:1059D00002AE04000D00029172608B4203D1828AF4
:1059E000B3889A4226D0200006223100103005F0FC
:1059F000A5F8606800F051FA7379E17A013B581E0E
:105A00008341227B00936068002300F087FB337999
:105A10000021013BDBB2022B01D8074AD15C074BC6
:105A20002A009D4200D91A00606800F007FA6068F9
:105A300000F029FA7FBDC04688D30000001BB700E4
:105A400070B518260400FFF7B7FF33000821207A4D
:105A50000D4D4343EB18595602F072FE33000821F6
:105A6000A07A4343EB18595602F06AFE0821607A87
:105A70004643AD19695602F063FE044B200006CB85
:105A8000FFF7A4FF70BDC046C8D30000F00300209C
:105A900007B5437E00910192002B07D09A070AD5E3
:105AA000EFF310835A425341837672B60099019AFC
:105AB000FFF78CFF07BDDB07F8D5C369014A9BB22E
:105AC0009360F3E700180040F7B500240125194B57
:105AD000194A5D711A601C71184B194808330193FB
:105AE0000360184B184F4360184B194E038109236C
:105AF0003A0031004575046104758372063B0476F3
:105B0000C472037302F0CAFE1248134B019A436039
:105B1000124B457503811D233100026004613A0078
:105B2000047583721A3B05730476C37202F0B6FEE5
:105B3000F7BDC046F003002000093D008CD30000F3
:105B4000B003002088080020000000200A080000A0
:105B500091580000D0030020A00800201B1A00006C
:105B60002420704770B50121202002F059FD00214A
:105B7000202002F0A1FD0A2002F004FB00212020D9
:105B800002F04EFD642002F0FDFA202002F0DAFC63
:105B9000962305009B002F4C984222DD2E492000C1
:105BA00000F0E2FA200000F0A0F903210B2002F03F
:105BB000C7FD03210C2002F0C3FD00226B21200051
:105BC00000F0C8F90121200000F006FA1B21200096
:105BD00000F002FA2000032100F0A6F9200000F0F6
:105BE00099F91D49200000F0BFFA200000F07DF96E
:105BF00003210B2002F0A4FD03210C2002F0A0FDE4
:105C000000226B21200000F0A5F90721200000F000
:105C1000E3F996232B219B009D4200DD20392000D3
:105C200000F0DAF90321200000F07EF9200000F0F6
:105C300071F901211E2002F0F3FC01211E2002F067
:105C40003BFD01211F2002F0EBFC01211F2002F08F
:105C500033FD70BD90080020A086010010B50248F9
:105C600001F00BFE10BDC046F803002010B502483D
:105C700001F003FE10BDC0463C0600207FB5194967
:105C8000194800F04BF81949194800F047F819492C
:105C9000194800F043F81949194800F03FF8194C29
:105CA0001949200000F03AF8184E1949300000F068
:105CB00035F8012503233100019500930D220B33A4
:105CC000144801F053FD1D230393013B02931A3B3B
:105CD0000193009518331B2221000F4801F002FDAB
:105CE0007FBDC0460008004280080020000C004232
:105CF0008808002000100042900800200014004294
:105D000098080020A008002000180042A8080020E1
:105D1000001C0042F80300203C0600200023037111
:105D2000016070479446F0B59E1E721E9641624611
:105D3000056892072F6836063A4332432A600725E2
:105D400005AC24780068A40129402143426800245E
:105D5000022B00D05C03114321434160F0BD30B5FC
:105D6000C0250368AD031C6812052A402243C024E5
:105D70000904A40221401143196003685A681443BE
:105D80005C6030BD0123026811680B431360036837
:105D90001A68D207FCD4DA69D207F9D47047022313
:105DA000026811680B4313600268D3699B07FCD437
:105DB00070470268137E9B0702D40379002BF9D148
:105DC000002303717047002203685A8370470368F9
:105DD000187E4007C00F70470368187EC0097047DF
:105DE000802302685B42117E0B4313767047036881
:105DF000588B8007C00F704702230268518B0B43FA
:105E0000538370470368187EC007C00F704703684C
:105E1000188DC0B2704703681A7ED207FCD589B2CC
:105E200019850123037118007047012203689A75D0
:105E30007047012203681A757047000070B501268B
:105E400004684B0833403140256809075B070B4362
:105E50002B43236004685100034802F031FD0138F0
:105E6000C0B2207370BDC046006CDC020123026822
:105E700011680B43136003681A68D207FCD4DA690F
:105E8000D207F9D470470223026811680B431360EC
:105E90000268D3699B07FCD470470368DA699207EC
:105EA000FCD402211A688A431A6070470368186894
:105EB0004000C00F70470268936A5B0A5B02194397
:105EC000916203681A7E5207FCD5986AC0B2704787
:105ED0000123026811680B43136003681A68D20734
:105EE000FCD4DA69D207F9D470470223026811683A
:105EF0000B4313600368DA699207FCD430215A8B94
:105F00008A43110010220A435A830268D3695B074F
:105F1000FCD470470221026813688B431360026847
:105F2000D3699B07FCD47047032230B50368114046
:105F30001C68074D5A6809042A40E4061143640F9F
:105F40005960052C03D10268D3695B07FCD430BDCE
:105F5000FFFFFCFF70B5056804006B8B9B069B0F71
:105F6000022B0DD06B8B00209B069B0F032B32D096
:105F70006B8B9B0704D56B8B9B069B0F012B2AD148
:105F80006B6A49001143DB0AC9B2DB020B436B6247
:105F90002368002A13D11A7ED207FCD55B8B9B069F
:105FA0009B0F022B04D0490800222000FFF7D2FFEC
:105FB0002368588B4007C30F012058400BE0187E20
:105FC0008007C00FF4D11A7ED207F8D5C0225968D5
:105FD00092020A435A6070BD036828331970026840
:105FE000107EC007C30F508B002B06D1C007C00F17
:105FF00008D1538B9B07F3D570474007C30F01208F
:106000005840F9E71800F7E70368214A30B5934292
:106010002FD0204A93422FD01F4A93422FD01F4A9D
:1060200093422FD01E4A93422FD01E4A93421FD133
:106030000E2319220121032599401B48C024016029
:1060400099082B40AB40FC359D4089000918A400FD
:106050000859A843C0259D402B0003430B518023C2
:10606000DB011A43114B5A805A7852B2002AFBDBEB
:1060700030BD09231422DDE70A231522DAE70B23BA
:106080001622D7E70C231722D4E70D231822D1E7D5
:1060900000080042000C00420010004200140042C0
:1060A00000180042001C004200E100E0000C00402B
:1060B000F8B504000F0016001D00FFF7A5FF200033
:1060C000FFF760FE1C21BB000B4071072268090C22
:1060D0000B431360842322689375012F1AD110217A
:1060E000012E00D008390C4B69431868C00002F03B
:1060F000E7FB0722216802408B895203DB04DB0C9B
:1061000013438B81226803049089DB0C400B40030E
:1061100018439081F8BDC046C0000020F7B50600C6
:10612000019308AB1F780D001400FFF79FFE3000AD
:10613000FFF76AFFC022240592031440BA070C2718
:1061400017433C43C0270722BF022D0433683D405C
:1061500025431D60019B316813401A0080239B0278
:1061600013434B60F7BD0000F8B504000F00FFF7C4
:106170004BFF2000FFF7ACFE1422236879001A6061
:106180000C4B25681E68300002F09AFB0A49040097
:10619000300002F095FB7D23FA215843C90002F03C
:1061A0008FFBFF23241AE868053C1C4098430443F6
:1061B000EC60F8BDC000002040420F000020704796
:1061C00070B50F26CB1D013902003240D5B22C002C
:1061D00000093034092A00DD07341C70013B8B4272
:1061E000F2D170BD10B50C000B4B1868FFF7E8FF3B
:1061F00021000A4B08311868FFF7E2FF2100084B25
:1062000010311868FFF7DCFF2100064B18311868C1
:10621000FFF7D6FF202010BD0CA0800040A080001A
:1062200044A0800048A0800008B4024B9C4610386F
:1062300008BC6047E5610000704770473F20704729
:1062400013B56B460268D9710733546819000122EF
:10625000A04716BD70B50A260B7892B06E44023383
:1062600005000B703C220021300004F083FC39480B
:1062700001AC069038482421079006202077684614
:10628000364AA1742281364A364BA281FD3AFF3A42
:106290008018C177684623390630C17768460730D1
:1062A000C17702A8C1770720F27703260831694435
:1062B000C87703A9CE7710212B366E44317009269A
:1062C00021851F3169440E700CA9053E0E703321E3
:1062D0002380022369440B7006360DA90E702249F3
:1062E0003536A1863B216E44307010A86274E27787
:1062F00002703D3269446A440B70137040210022E1
:10630000E37023716371A37341336B442187197068
:106310005A702B7DC039A370A37263770133DBB24F
:10632000A3776A7D0B200D0068441543C5773120A3
:10633000684403703A23501C6B44187041230232A6
:106340000A436B441A7021004222084800F0FEFC08
:1063500012B070BD100104240206052409040000D7
:1063600001020000080B0000070500000C090020D6
:1063700008B4024B9C46103808BC604755620000C8
:1063800070B5027D0B790C0000259A420BD10B7879
:106390004E78A12B09D1212E05D107221B491C487B
:1063A00000F0D4FC0135280070BD212BFBD1202E3C
:1063B00022D107221549164800F00AFC9622134BF9
:1063C000D200196891421DD1DB79DB071AD4FA207B
:1063D00002F016FA00210E4800F0C0FD0125232E20
:1063E000E1D1E378A2781B0213430A4A002108484E
:1063F000136000F0B3FDD6E7222EEFD18A78034B6D
:10640000DA71DBE702F006FAE4E7C046B4000020E8
:106410000C090020B000002008B4024B9C46103844
:1064200008BC60478163000010B5082200210248C3
:1064300004F0A0FB10BDC046B400002010B5417DA3
:10644000006A013100F0FCFA034B1B6801335A1E4D
:106450009341181810BDC046BC00002010B5417D06
:10646000006A023100F002FB10BD10B5417D006AE8
:10647000023100F0C9FA10BD70B50D00417D040075
:10648000130002312A00006A00F0B6FB002801D197
:106490000123636070BD000010B5054C23685A1CD1
:1064A00004D103685B69984703002060180010BDA1
:1064B000BC000020074A0300106810B5411C03D03F
:1064C00001235B42136010BD597D186A013100F051
:1064D00043FBF8E7BC00002010B501F01DFEF423DB
:1064E000FF330024984207D9044B0A20DC79631E4D
:1064F0009C41E4B201F046FE200010BDB400002033
:106500000020704770477047FA239B0010B58360E6
:106510000F4B0022C3820300283383610D4B04001C
:106520004260C2611800503323610830631D21624C
:106530002060DA778323A362813BE36280332363A5
:1065400001F022FB2100103101F0EFFA200010BD14
:106550000302000028D70000022110B5094B1A6879
:10656000437D5B01D318FF339C7A21439972437DAD
:106570000133DBB25B01D3180122FF33997A0A435E
:106580009A7210BDC40D002010B502490248FFF7F1
:10659000BBFF10BD0C090020B0080020704710B5EB
:1065A000040001F067FE200010BD0000F0B5822954
:1065B00019D1C3B2294D5A01AA189169284C8001FA
:1065C0000C40C021890521439161264908334018B8
:1065D0007021506128685B011A5C8A4311003022E7
:1065E0000A431A54F0BD0029FCD1C026C1B21B4C8D
:1065F0004B01E3189A681A4DB6052A4032439A6057
:10660000194A800182185A600A0007272468083254
:106610005201115DB9430F000121394311559F69A2
:1066200010493D4040182E439E6158617020115D15
:106630008143080010210143115599680B48A218A5
:10664000084080214903014399609968890B8903B7
:106650009960402311790B431371C3E7C40D0020E7
:10666000FFFFFF8F38090020F80A0020FF3F00F0ED
:10667000EFF3108303600123436072B67047036831
:10668000002B02D162B6BFF36F8F704773B5836D75
:106690000400002B1BD10600A83635786846FFF7AA
:1066A000E7FF019BEDB2013B02D33578EDB2FAE78B
:1066B00068460193FFF7E3FF002D01D1002076BD6E
:1066C0002300A4331868A0342368C01AF7E768468B
:1066D000FFF7CEFF22000025019BF432013B02D3DD
:1066E0001578EDB2FAE768460193FFF7C8FF002D71
:1066F000E4D02300F0331868EC34E5E710B5436DBF
:106700004468DBB25A01A21891680948083308406E
:10671000802149030143916091685B01890B8903E2
:1067200091602268D318402219790A431A7110BD6A
:10673000FF3F00F0F7B5436D4268DBB2190004007B
:106740000831106849014118C979C90711D55B01A1
:10675000D21893689B049B0C0CD12000FFF7CEFF4E
:1067600063681A68636DDBB208335B01D3187F225C
:10677000DA71F7BDE16D002923D12100A4310B604E
:1067800023000125AC33E56568465360FFF770FFD1
:10679000260020002100019BA836013BF430F53192
:1067A0005A1C33D0357002785F1ED2B20A700A7854
:1067B000002A04D120000193FFF7A0FFE8E73B0087
:1067C000EEE72100F0310B600023E3652300603326
:1067D00053606846FFF74CFF01252600200021008A
:1067E000019BF436013BA830F5315A1C0ED03570B0
:1067F00002785F1ED2B20A700A78002A04D1200003
:106800000193FFF77BFFE8E73B00EEE76846019363
:10681000FFF735FFA4E737B56B46DC1D00230D00FD
:10682000237001F0B1F9210001F03CF92B68181830
:10683000286020783EBD00000078002810D001219B
:10684000084B1B681A898A431A810822198B0A434C
:106850001A830422198B0A431A830022024B1A60FE
:106860007047C046C40D0020BC0D002010B50F4A73
:1068700093699B0B9B03936113680222FF331A7287
:106880009879823A02439A711A7A9207FCD57F244A
:10689000074A2140937A0800A3431900802301434B
:1068A0009172917A5B420B43937210BDC40D00202C
:1068B0000050004110B50C0001F066F9210001F014
:1068C00024F9002804D1034A93699B0B9B0393612D
:1068D00010BDC046C40D0020F8B50D00832A19D1A3
:1068E000CBB23B4C5A01A21891693A48AD0108401D
:1068F000C021890501439161374920686D187021D5
:10690000083355615B011A5C8A43110040220A4337
:106910001A54F8BD022A55D1304A8B0098580028E5
:1069200002D003685B699847F82001F09FFC0400DF
:10693000274E2B4B4660036040220021083004F0B4
:1069400019F922000023A032A3646565E36423657E
:10695000A365E3655360D3641372136013654C320F
:1069600013725372FF222B0013405901711888686B
:10697000184F08330740C0208005384388603068CE
:1069800007265B01195CAD00B1430E0003213143C2
:1069900019542300616D606811404901411860334A
:1069A0004B60616D63680A401B6852019B180122AD
:1069B000FF33997A20000A439A72FFF79FFE074B34
:1069C0005C51A6E711002800FFF7F0FDA1E7C046E3
:1069D000C40D0020FFFFFF8F3809002010090020A0
:1069E00090D7000070B505000124064BA200D258D4
:1069F000002A06D0210028000134FFF76DFF0A2C81
:106A0000F3D170BDE40800200B4BCAB20B488901DA
:106A1000C9185301C318596199690832890B890350
:106A20009961036852019A180223D3715179823B0C
:106A30000B4353717047C04638090020C40D002035
:106A4000084B8A00D05810B5002803D003689B6813
:106A5000984710BDC9B2044B490159188868800491
:106A6000800CF6E710090020C40D002010B50C00C2
:106A7000FFF7E6FF00280CD0064BE4B21B68083491
:106A800064011C19802362795B4213436371022302
:106A9000E37110BDC40D0020F0B51C002A4B85B079
:106AA0001B6807000D000292002B4AD0274B8A007A
:106AB000D058002808D0036822005B6802999847E4
:106AC0000400200005B0F0BD3800FFF7B9FF844294
:106AD00004D929003800FFF7B3FF04000121EBB20D
:106AE0001B4E03935B010193F21893689B0B9B036E
:106AF0009360019A336802989B18FF335A7A0A43CD
:106B00005A72144BA901C918220004F017F8002C7E
:106B1000D7D029003800FFF793FF0028D1D14021BA
:106B2000039B326808335B01D3181879014319714C
:106B30000121D971019BD318FF339A7A0A439A72C3
:106B4000BFE701246442BCE7BC0D0020100900200F
:106B5000C40D0020F80A002013B56B46DC1D22008E
:106B60000123FFF799FF012801D1207816BD0120EC
:106B70004042FBE770B5CBB2124A13485C01890171
:106B80008918021951609168104D08330D40802119
:106B900049032943402591609168890B89039160DD
:106BA00001685A018A1816793543157195796D0671
:106BB000FCD55B01C918CB79DB07FCD500198068CF
:106BC000C0B270BDF80A0020C40D0020FF3F00F0E5
:106BD00070B50D0000211400FFF7CCFFA04200D9D2
:106BE000200000230349A34203D0CA5CEA540133C6
:106BF000F9E770BDF80A0020F0B51E003A4B85B0E9
:106C00001B680F000192002B35D08023DB019E42D0
:106C100031D80025354B8A01D3180293002E2CD091
:106C2000334B1B680393FF233B401C000093083445
:106C3000039B64011C19A379DB0921D02D4B2E493C
:106C4000186801F03DFE2D4B1721584301F038FE26
:106C50002B4BE279920713D4DA5D002A01D1013877
:106C6000F7D20122DA55009B5A01214B9B189A69F1
:106C7000920B92039A6101256D42280005B0F0BD88
:106C800000221F4B3400DA553F2E09D9009B4024C7
:106C90005A01174B9B188022996912060A439A6180
:106CA00022000199029803F049FF009BA1045A01B8
:106CB0000F4B890C9B18029A2D195A619A69361B41
:106CC000920B92030A439A61009B039A08335B017B
:106CD000D3180222DA715979823A0A435A71019B18
:106CE0001B1901939AE7C046BC0D0020380900200B
:106CF000C40D0020C000002040420F0070110100B0
:106D00002D09002070B50D001C000D4BAE01F618CA
:106D100011003000220003F011FFEDB209496D01AE
:106D20004D196E61AB69084A20001340AB61AB6935
:106D3000A2049B0B920C9B031343AB6170BDC04636
:106D400038090020C40D0020FF3F00F0F7B5104BBC
:106D500001901B780F001500002B0CD10D4B160075
:106D60001C78002C09D00C4E0C483488201864196B
:106D700003F0E4FE34802800FEBD002EFBD03A195B
:106D8000330000210198FFF7BDFF2418361AF4E7FD
:106D9000B80C0020B90D0020BA0D0020B90C00205D
:106DA000F8B50F0016000024012A26D9100003F0C0
:106DB0009FFE0500380004F047FC03230222013047
:106DC000400028706B7096420DD9397800290AD09E
:106DD000531CDBB20137A9549E4203D00232EC545B
:106DE000D2B2F0E7320029000548FFF7AFFF441E9A
:106DF000A041C4B2280003F085FE2000F8BDC046C3
:106E00000C090020F0B50024012685B0184B0F00B6
:106E100069461E7005000094FFF7FDFC154B01A9A3
:106E20000B806A3BFF3BCB715A330B72009B8C711A
:106E300009334B800E4B4E7108711C703A00092FBC
:106E40000FD00D4F09223E700C4E28000094348064
:106E5000FFF77CFF69462800FFF7DDFC3288084910
:106E60003C702800FFF772FF012005B0F0BDC0465E
:106E7000B80C002009020000B90D0020BA0D002056
:106E8000B90C002070B5CE7892B005000C00022E2F
:106E90000BD18B79C9792C4809021943FFF7B2FF4E
:106EA000411E8841C0B212B070BD00F06DFE2100DD
:106EB00000F00CFE002803D0C117081AC00FF2E73B
:106EC000012E0ED1E279A37912021A431F49112A29
:106ED00013D8D2B2002A10D02800FFF737FF0120C4
:106EE000E1E7032EDFD1A378002B08D1E279A37963
:106EF00012021A431649032AEBD90A78ECE7022B4F
:106F000008D1E279A379120212491A432800FFF747
:106F100047FFC8E7012B05D1E279A37912021A4392
:106F20000D49F3E7032BBED14122010001A803F074
:106F300021FE00F029FE01A900F0D8FDE279A37935
:106F400012021A4301A9E1E70C090020D2D7000080
:106F5000C2D70000ACD70000C6D70000CBB20449AE
:106F60005B01C9188B699B0B9B038B617047C04603
:106F7000C40D002037B5050048780C000B2810D848
:106F800001F094FC061B0F2B0F404561494C5A5DE4
:106F9000097801AA002906D1022311802800FFF7F1
:106FA000B1FE01203EBD00231380284B1B78012B2E
:106FB00000D1137002230021F0E78A780023012A10
:106FC00003D101AA1380224BF0E7204A1370214A13
:106FD00093699B0B9B039361E3E78C78012C06D1AB
:106FE00000211B4B01AA1C7011702300D6E7012061
:106FF000002CD7D1154B174A187093699B0B9B0334
:107000009361CFE789782800FFF730FCC9E72800B3
:10701000FFF738FFC6E701230F4ACCE70B780020C3
:10702000DB06BFD12800FFF7DDFCA2780A4B0B4836
:107030001A60FFF791FACAE70123094ABBE78A7889
:10704000074B1A60C3E70020ACE7C0462C090020BC
:1070500034090020C40D0020BC0D0020B008002021
:10706000C00D00203A4BF7B51E780500002E5FD109
:10707000384C23689A8B12070DD5082231009A8369
:107080003000FFF793FA10222368FF33997A0A43FE
:107090009A72314B1E6023689A8B520701D50422E5
:1070A0009A83FF331A7A920603D52022597A0A432B
:1070B0005A721A7AD20623D569460800274AC0CAEE
:1070C000C0C0A268920B9203A2604022587902438A
:1070D0005A7160230A7828001A422AD1FFF74AFF22
:1070E0002368FF33002827D08022997952420A432F
:1070F0009A711A7A520603D54022597A0A435A7273
:107100007F2601252368FF331E722F00236808376E
:107110007F01DB19DB79002B07D0114BAA00D05877
:1071200000280DD003681B6898470135082DECD165
:10713000F7BDFFF7BFFBD3E720210A4A9171D8E7DB
:1071400029000948FFF7DFF92368DF19FE71ECE732
:10715000B90D0020C40D0020BC0D0020F80A00204D
:1071600010090020FF500041B008002010B502486F
:10717000FFF778FF10BDC0460C09002080235B009C
:107180000380002343600733037270478300014884
:10719000C0187047E4080020836C402B09D03F22C0
:1071A000036CC154036C013313400364836C0133DB
:1071B00083647047F7B505006846FFF759FA002663
:1071C0004022019B013B02D32E6D961BFAE76846D5
:1071D0000193FFF754FAAB6D6846002B4FD1FFF7D0
:1071E00047FA2900019BA831013B5A1C0CD00C78AE
:1071F0005A1EE4B2002C05D168460193FFF73FFA0E
:107200002000FEBD1300F0E7684601930024FFF75D
:1072100036FA2A002900A0321368A431B4420ED0F5
:10722000086898420BD92800591CEB18116060338C
:1072300019780830C9B2FFF7AFFF0134E9E70968F0
:107240009942DDD1002313600133AB656846FFF737
:107250000FFA2F002A000021019BA837013BF532CD
:10726000581CC9D0397010785E1E002805D01170E6
:1072700028000193FFF742FAEBE73300F0E7FFF74E
:10728000F7F92900019BF431013B5A1C06D00C7818
:107290005A1EE4B2002CAFD01300F6E76846019303
:1072A0000024FFF7ECF92A002900EC321368F031D2
:1072B000B44202D0086898421DD8096899429FD10B
:1072C000002368461360AB65FFF7D2F92F002A0050
:1072D0000021019BF437013BF532581C00D18BE7AC
:1072E000397010785E1E002811D0117028000193AB
:1072F000FFF704FAEAE72800591CEB181160AC33D9
:1073000019780830C9B2FFF747FF0134CBE73300E3
:10731000E3E710B50400FFF74DFF206D10BD10B579
:107320000400FFF747FF236D002B03D0E36CE41844
:10733000207A10BD01204042FBE7F7B517000E0090
:107340000400FFF737FF6846FFF792F93F22002558
:107350009446019B013B5A1C19D0BD4215D2226DA7
:10736000002A12D00121226D4942002A0AD060462B
:10737000E26CA218117AE26C01320240E264226DE2
:10738000013A226571550135E7E7013BE3E76846BD
:107390000193FFF774F92800FEBD0000014B024A7B
:1073A0001A607047C40D0020005000412023F7B53B
:1073B000474A0500D1690F200B43D361012245499B
:1073C0000B7813430B70444B1978814319700621D5
:1073D0001C782143197041490C7822430A701A78AD
:1073E00002401A70602219780A431A703C4B3D4AD9
:1073F0005A805F78FF09FCD13B4800F087FE0123EB
:107400003A4C3B4E2268300011780B4313708022B7
:107410003900520003F0AEFB22689378DB07FCD4FE
:1074200056621F26334B1B68590B980C9B01314049
:1074300030405B0FB14200D105211F2800D1023836
:10744000072B00D1043B31408901178D01912A4956
:1074500030400F40019939431185118D0700B14328
:10746000080038431085118D1803244B7F260B40EC
:1074700003430C2013850823D17881430B43032158
:10748000D3702268D3788B4301390B43D3702268C1
:107490001378334013700423226816783343137033
:1074A0002268C1241389A40083431548138103591A
:1074B0001B021B0A035180230360137811481943F0
:1074C000012311702B700021FEF7B6FEF7BDC046F8
:1074D00000040040584400413C44004159440041EC
:1074E000000C0040064000006D710000C40D00203B
:1074F000C80D0020246080003FF8FFFFFF8FFFFFD2
:1075000000E100E0B00800200120704710B50368DA
:10751000014A1B6A984710BD13040000FC30006A42
:10752000704787239B00C018C36880204000C01AA2
:1075300070470300FC331A6A002A03D0DB69C018C5
:10754000007D704701204042FBE710B50400006950
:10755000FEF718FC22000023FC329361D361136212
:1075600087229200A4186360A360E36010BD8723A4
:1075700010B59B00C218D368002BFCD10069FEF740
:1075800018FC10BDF0200140303948424841704796
:10759000F0231B011940802306209B0099420AD04A
:1075A0000133FF330130994205D0802302385B005C
:1075B000994200D0002070470F200140002001298F
:1075C00003D00239481E8141481C70478B23F0B517
:1075D000182685B002919B000400C05C330008218E
:1075E0004343324D1700EB18595601F0A9F8304BC0
:1075F0000821E05C33004343EB18595601F0A0F832
:107600002C4BE25C0393022A09D11133E05CFF2882
:1076100005D008214643AE19715601F091F88C2629
:10762000B600A05DFF2819D0012100F0F9FF182253
:10763000A35D21495A43AB56AD18DB0158188D2183
:10764000890060501D4901225B188E21890063501A
:1076500069688A408F21890062501A600122029B6A
:1076600011002069FEF724FD39002000FFF790FF8C
:10767000390005002000FFF79FFF390006002000B9
:10768000FFF780FF33000090290020690122FEF7F8
:1076900049FB0B4B2069E25C039BE15CFEF75FFB5F
:1076A0002069FEF77CFB05B0F0BDC046C8D30000E2
:1076B0002D0200002F020000184400411444004134
:1076C0002E020000802210B504005200002103F0B9
:1076D00051FA23000022FC335A6020009A60DA60DD
:1076E00010BD0000F0B585B01D000AAB1B7804008A
:1076F00000930BAB1B78160001930CAB1B780F00AB
:1077000002930DAB1B78039300234360FA239B0085
:107710008360124B083303601430FFF7D3FF20005F
:107720002130FF30FFF7CEFF8B236A469B00276195
:10773000E6540B4B1278E5540A4B2000E2546A469B
:10774000094B1279E2546A46127A0133E2546A46CE
:10775000127B1033E25405B0F0BDC046E4D7000000
:107760002D0200002E0200002F020000F7B51D00C0
:1077700008AB1B780400009309AB1B78160001933B
:1077800000234360FA239B008360114B0F000833F2
:1077900003601430FFF796FF20002130FF30FFF721
:1077A00091FF8B236A469B002761E654094B1278B0
:1077B000E554094B2000E2546A46084B1279E25422
:1077C0008C22313BFF3B9200A3541032A354FEBDE8
:1077D000E4D700002D0200002E0200002F0200005E
:1077E000F7B5EFF3108300930123019372B680265F
:1077F0000200FF25019BFC327600013B5C1C0FD090
:10780000D4685F1EB44209D05468015554680134ED
:107810002C405460D4680134D460EEE73B00EDE7BF
:1078200068460193FEF72BFFF7BD13B5EFF3108306
:1078300000930123019372B6019B5A1E0192002B03
:1078400015D00300FC33DA68002A0DD09A68845CF6
:107850009A680132D2B29A60DA68013ADA60684610
:10786000FEF70DFF200016BD01246442F7E7012456
:107870006846FEF704FF6442F4E710B504000069AF
:10788000FEF7B5FA002805D02069FEF7C0FA206996
:10789000FEF7B2FA2069FEF79AFA00281BD0206999
:1078A000FEF7B5FA010020001430FFF799FF8C2392
:1078B0009B00E35CFF2B0ED02300FC331A6A80236D
:1078C0005B009B1A092B06DC8D238F229B00920004
:1078D000E358A2581A602069FEF794FA00280ED0E7
:1078E00087239B00E318DB68002B14D02000213095
:1078F000FF30FFF79AFFC1B22069FEF78CFA2069CA
:10790000FEF76AFA002805D02069FEF769FA2069B7
:10791000FEF759FA10BD2069FEF78BFAEFE7000079
:10792000F8B5040000690D00FEF76CFA87239B0090
:10793000E618002802D0F368002B34D001278022FB
:10794000F3685200934223D1EFF310833B4210D1EE
:10795000174B5B68DB05DB0DF1D0103B5BB2002BF6
:1079600010DAF13A1340083B9B08124A9B009B181F
:107970001B682069FEF746FA0028E0D02000FFF7D8
:107980007CFFDCE79B08C0330B4A9B009B58F0E769
:1079900020002130FF302900FFF722FF2069FEF789
:1079A00044FA0120F8BD29002069FEF734FAF8E70F
:1079B00000ED00E01CED00E000E100E010B5040087
:1079C0001430FFF732FF8C239B00E35CFF2B0ED0BB
:1079D0002300FC331A6A80235B009B1A0A2B06DD06
:1079E0008E238F229B009200E358A2581A6010BD8C
:1079F000FEE7F7B5C31D0193002306000D00041D2B
:107A0000009321780A22280000F083F92E21070034
:107A1000280000F0FFF8009B3F18DB190093019B42
:107A200001349C42EDD1F17928000A2200F071F96D
:107A3000009B1818FEBD0000024B083303600023B2
:107A40004360704718D8000030B503AC2578044C6B
:107A5000C5710834046001714271837130BDC04644
:107A600018D8000010B50400034B0422083308C0E6
:107A700003F064F8200010BD18D8000010B5040011
:107A80000422043003F05AF8200010BD034B044ACE
:107A900008331360002353607047C04618D80000B5
:107AA000C80E002070B50E0000254468002C0BD0D5
:107AB000236831005B6820009847002802DB2D18FE
:107AC000E468F3E701256D42280070BD70B50D0034
:107AD0004468002C08D0236829009B682000984740
